:100000000C94A2010C94BF010C94BF010C94BF018D
:100010000C94BF010C94BF010C94BF010C94BF0160
:100020000C94BF010C94BF010C94130F0C94CF0ED1
:100030000C94A51B0C94BF010C94BF010C94BF0140
:100040000C94BF010C94BF010C94BF010C94BF0130
:100050000C94BF010C94EA0F0C94BF010C94BF01E7
:100060000C94BF010C94BF010C94BF010C94BF0110
:100070000C94BF010C94BF010C94BF010C94BF0100
:100080000C94BF010C94BF010C94BF010C94BF01F0
:100090000C94BF010C94BF010C94BF010C94BF01E0
:1000A0000C94BF010C94BF010C94BF01350011509A
:1000B0003900E100005700001E00140004001D007C
:1000C000A9004C001F001A0016001B00E3002A00C4
:1000D0002000080007000600E2002C0021001500A7
:1000E00009001900E0004600220017000A00050080
:1000F0000000010034002F0000003100000001006A
:1001000030002D0000002E000000010023001C0024
:100110000B00110000000100240018000D00100069
:10012000E400010025000C000E003600E600280067
:10013000260012000F003700E7002B0027001300F5
:1001400033000100BE002900010001000100E500AC
:10015000BD00000000001050000000000100000081
:100160000000000054000000010001000000000039
:1001700055000000000001000000000056000000D3
:100180000000010000000000570000000000010016
:1001900000000000670000000000010000000000F7
:1001A000000000000000010000000000000000004E
:1001B000000001000000000000000000000001003D
:1001C00000005F005C005900630001000000600057
:1001D0005D005A0062005800000061005E005B0094
:1001E0008500010000000000000000000100010087
:1001F000000000000000000001000000050109806F
:10020000A101850319012AB700150126B700950140
:1002100075108100C0050C0901A101850419012A8E
:10022000A002150126A002950175108100C00501EC
:100230000906A1018505050719E029E71500250133
:100240009508750181020507190029EF15002501A0
:1002500095F07501810205081901290595057501BB
:100260009102950175039101C005010906A10105DF
:100270000719E029E7150025019508750181029508
:1002800001750881010507190029FF150026FF00E7
:100290009506750881000508190129059505750160
:1002A0009102950175039101C009023B0002010012
:1002B000A0FA090400000103010100092111010055
:1002C000012240000705810308000A09040100011A
:1002D00003000000092111010001226D00070582C1
:1002E0000320000A1201000200000008973274493E
:1002F00001000102000116034500720067006F0053
:1003000044006F007800200045005A0000003003D0
:100310005A0053004100200054006500630068004B
:100320006E006F006C006F006700790020004C00C9
:10033000610062007300200049006E00630000004D
:100340000403090411241FBECFEFDAE0DEBFCDBFE6
:1003500011E0A0E0B1E0EEE7FCE302C005900D92F1
:10036000AC35B107D9F722E0ACE5B1E001C01D9290
:10037000A937B207E1F70E94F6190C94121E0C94EB
:100380000000E8EDF0E080818E7F80831092E20033
:100390001092DA001092E100A0EEB0E08C91816042
:1003A0008C9380818F77808319BCA7EDB0E08C910E
:1003B0008E7F8C9380818F7E808310923F02089580
:1003C0002091E4003091E50095E6A9012091EC0030
:1003D000822F817020FF06C08091E80080FF06C058
:1003E00080E008952091E80022FD1AC08091640207
:1003F000882389F0853089F08091EB0085FD0FC05E
:100400002091E4003091E50042175307F9F2915032
:10041000E1F684E0089582E0089583E0089581E0A4
:100420000895EF92FF920F931F93CF937C018B015E
:100430000E94E001C82F811117C08091E80085FD5E
:100440000BC08091E8008E778093E8000E94E00165
:10045000882399F3C82F08C0F70181917F01809309
:10046000F1000150110949F78C2FCF911F910F9185
:10047000FF90EF9008958091660287FF13C08091EE
:10048000E80082FF06C08091E8008B778093E80047
:1004900004C0809164028111F2CF089580916402BA
:1004A0008823D9F38091E80080FFF8CF8091E8009D
:1004B0008E77ECCF982F9093E900242F762F50E081
:1004C000891731F07091EC002091ED005091F0000F
:1004D00021FD07C09F5F973071F78093E90081E0AD
:1004E00008953091EB003E7F3093EB003091ED00AA
:1004F0003D7F3093ED003091EB0031603093EB00A5
:100500007093EC002093ED005093F0002091EE00EA
:1005100027FDE0CF80E00895CF92DF92EF92FF9227
:100520000F931F93CF93DF93C8EDD0E088818F7E28
:100530008883E7EDF0E080818160808384E082BF82
:1005400081E080933F0288818E7F888302EE10E0F5
:10055000F80110821092DA0081EEC82ED12CF6013B
:10056000108288818F7788838881806888838881DA
:100570008F7D888319BC10926402109265021092DC
:1005800063021092620290EEE92EF12CF701808155
:100590008B7F808388818160888342E060E080E097
:1005A0000E945A02F60180818E7F8083F80180814B
:1005B00081608083808188608083F70180818E7F65
:1005C0008083888180618883DF91CF911F910F9113
:1005D000FF90EF90DF90CF900895FC0180916C0226
:1005E00090916D0286179707A0F06115710529F4A7
:1005F0009091E8009E779093E80090E06115710576
:1006000051F4911108C08091E80082FF34C080E06D
:100610000895BC01F2CF809164028823C1F1853036
:10062000C1F18091E80083FD30C08091E80082FD37
:10063000EACF8091E80080FFE1CF8091F300209124
:10064000F200382F6115710519F02830310558F086
:1006500091E02830310509F090E02091E8002E77F4
:100660002093E800CBCF81918093F1006150710914
:100670002F5F3F4FE7CF80916402882341F08530A0
:1006800041F08091E80083FFBECF81E0089582E0D1
:10069000089583E00895089580914102089520917E
:1006A0002A012223C9F020911C0227FF15C0E62F42
:1006B000E695E695E695EE31D8F4E80FF92FF11DB1
:1006C000677021E030E001C0220F6A95EAF72095BB
:1006D0008281282322830895FC0132960896219175
:1006E000621303C0DF0111971C92E817F907B9F7ED
:1006F000089520912A012223C1F020911C0227FF96
:1007000014C0E62FE695E695E695EE31F8F4E80F8D
:10071000F92FF11D677021E030E001C0220F6A95CA
:10072000EAF78281822B82830895FC0132962FEFB3
:1007300030E04191641751F02F3F19F4411101C08D
:10074000232F3F5F3630A9F72F3F09F40895820F1A
:10075000911D27FD9A95FC01628308958091FF0108
:1007600081111092FF01089580959091FE019823C8
:100770009093FE0108958091FE019091FD01892BD7
:100780009091FC01892B80935C019091FF0199234A
:10079000A1F0892B80935C0180912A01882341F18B
:1007A00080911C0287FF24C08EE1EEE5F1E090E02D
:1007B000815000F591110E94AE03E0911E02F0916C
:1007C0001F023097E1F080912A01882359F080912F
:1007D0001C0287FF07C080915C0180935D0185E06A
:1007E00080935C010280F381E02D8CE591E0099417
:1007F00086E0DBCF21912223D9F29F5FD9CF0895E4
:10080000E92FEE0FE90FEE0F8E0F982F9770869558
:100810008695869525E0829FF0011124EC53FE4FCA
:1008200050E040E080E0219130E0092E02C0369592
:1008300027950A94E2F721703327042E01C0220F76
:100840000A94EAF7822B4F5F5F4F4530510559F705
:100850000895E92FEE0FE90FEE0F8E0F982F977086
:1008600041E001C0440F9A95EAF7869586958695F2
:1008700095E0899FF0011124EC53FE4F30E020E019
:1008800070E05191DF011197CB01022E02C09695C5
:1008900087950A94E2F781708195852784238527BF
:1008A0008C932F5F3F4F2530310559F70895809184
:1008B000C30190919201981301C008958F5F8770D2
:1008C000FACF882321F00E94B4030C94BB0308954F
:1008D000882339F09091FE01982B9093FE010C949F
:1008E000BB030895209187013091880128173907AB
:1008F00071F09093880180938701E0911E02F0913E
:100900001F02309721F00084F185E02D09940895AD
:1009100020918501309186012817390771F0909355
:10092000860180938501E0911E02F0911F023097AD
:1009300021F00680F781E02D099408951092FD01C1
:100940001092FC010E94BB0390E080E00E948804AA
:1009500090E080E00C9472046093000270930102B6
:1009600080930202909303020C949E04882341F129
:100970009CEF980F913A38F4682F8CE591E00E9433
:100980004F030C94BB0390E2980F983050F487709B
:1009900091E001C0990F8A95EAF7892F0E94B4036C
:1009A000F0CF9BE5980F933020F490E080E00C941A
:1009B0008804885A873120F490E080E00C94720417
:1009C0000895CF93C82F882309F467C08CEF8C0F4C
:1009D000813AC0F580912A01882311F180911C028F
:1009E00087FF1EC0EC2FE695E695E695F0E0E45A09
:1009F000FE4F828190E04C2F477021E030E002C032
:100A0000220F331F4A95E2F782239323892B91F01B
:100A10006C2F8CE591E00E944F030E94BB030AC03B
:100A2000EEE5F1E084E691E02191C21789F38E179B
:100A30009F07D1F76C2F8CE591E00E947903CF914D
:100A40000C94BB0380E28C0F883068F4C77021E0FF
:100A500030E001C0220FCA95EAF78091FE01822B97
:100A60008093FE01ECCFEBE5EC0FE33040F4F0E0D7
:100A7000E55DFE4F808190E0CF910C948804C85AC8
:100A8000C73158F4EC2FF0E0EE0FFF1FE25DFE4F90
:100A900080819181CF910C947204CF910895E0915F
:100AA0001E02F0911F02309721F00190F081E02D9D
:100AB000099480E00895CF93DF93EC0181E0898B66
:100AC0008091FE019F81892B8093FE018091FD0121
:100AD0009885892B8093FD010E94BB03EA81FB81ED
:100AE000309739F06C897D89CE010696DF91CF91E0
:100AF0000994DF91CF910895EF92FF920F931F9386
:100B0000CF93DF93EC018A85811139C0EB80FC80A3
:100B100087E5F81A26E12E9DC0012F9D900D112426
:100B2000DC01AA5FBE4F1496ED91FC9115973097AA
:100B300031F054966D917C91845F9E4F099586E1CA
:100B40008E9D80018F9D100D11240A5F1E4FF801AC
:100B500087810E94B403F8018085982F9095809139
:100B6000FD0189238093FD010E94BB031882198631
:100B70001B861E821D8210928A0110928901DF91CC
:100B8000CF911F910F91FF90EF90089590911C02CB
:100B900092FF06C0282F28712830F9F4877F8460DF
:100BA00093FF06C0282F28712831F1F4877E8461D5
:100BB00020911D0220FF06C0382F38713830D9F43B
:100BC000877F816021FF06C0282F28712831D1F44A
:100BD000877E816194FD877E0895282F24712430BB
:100BE000F9F68B7F8860DCCF282F2471243101F740
:100BF0008B7E8861DDCF382F3171313019F78E7FD0
:100C00008860E0CF282F2171213121F78E7E886105
:100C1000E1CFCF93DF93972F70E026E0929F600D96
:100C2000711D1124FB0134E5839FE00DF11D11249A
:100C3000EE0FFF1FE455FF4FC591D491CE01C2388E
:100C4000D105B9F1E8F5C133D10509F499C050F5E2
:100C5000C932D10509F48DC0CA32D10509F497C053
:100C6000C11542E5D40708F0B6C0C11521E5D20789
:100C700008F024C1C83ED10508F09DC0C03ED10592
:100C800068F5C83AD10508F089C0C53AD10508F021
:100C9000EDC0C130D10511F1209709F443C024976C
:100CA000E8F440C0C533D10509F45CC0C933D105AF
:100CB000B9F620911C02237089F080EE90E00EC0FE
:100CC000C33ED10591F168F4C03ED105F9F0C23EB2
:100CD000D10531F620911C0222FD20C0DF91CF9179
:100CE0000895C63ED10561F1C73ED10581F1C43EEC
:100CF000D10509F0B5CF20911D0221FFEFCF8091E2
:100D00001C0284FD0FC087EE90E0E8CF20911C020A
:100D100020FD01C130911D0230FFE0CF83EE90E055
:100D200024FFDCCF90E080E0D9CF20911C0222FD8F
:100D3000F5C030911D0230FDC0CF24FFCFCFF2CFE0
:100D400020911C0223FFCACF24FDECCFDCCF2091E1
:100D50001C0223FDE6C030911D0231FFEECF84EE70
:100D600090E0BCCF20911C0225FFB8CF89E290E033
:100D7000B5CF20911C0225FFB1CF85E390E0AECF27
:100D800020911C0226FFAACF8AE290E0A7CF2091F3
:100D90001C0226FFA3CF81E390E0A0CFCF3BD1057B
:100DA00008F6C85AD0E0CC0FDD1FC25DDE4F888147
:100DB0009981946493CFC11530E5D30708F062C0E0
:100DC000C11540E4D40708F059C0DA95C115DF41D8
:100DD00008F484CFA7CFC11536E5D30718F5C115A0
:100DE00045E5D40708F080C0C11584E5D80708F0B0
:100DF00076C09C2F96959695AE0143705527C115E8
:100E0000D34508F460C021E030E002C0220F331F58
:100E10004A95E2F740E2949FC0011124822B932B64
:100E20009A685CCFC1153AE5D30778F4C11549E556
:100E3000D40708F063C0C11588E5D80708F472CF5D
:100E40009C2F8827806F906A49CFCE0190568115DC
:100E5000904208F067CF8D2F8F710E94C60590E0F9
:100E6000982F882788279F718C2B46C0C55AD0E0C1
:100E7000C55DDE4F888190E0906430CFCE019F70D9
:100E8000906A2CCF9E01E4E036952795EA95E1F72C
:100E900023708C2F86958695837030E2839FC001E6
:100EA0001124922BC37021E030E002C0220F331FC7
:100EB000CA95E2F7822B932B9C6810CF9C2F882732
:100EC000816F906A0BCF21E030E002C0220F331F08
:100ED0004A95E2F740E2949FC0011124EBCF9C2F8A
:100EE0008827846F906AFACE8C2F0E94C60590E006
:100EF000982F882788279F719062F0CE8C2F8F7053
:100F00000E94C60534E0D695C7953A95E1F7CF70B3
:100F10009C2F9069E3CE89E390E0E0CE82EE90E0F2
:100F2000DDCE86EE90E0DACEBF92CF92DF92EF92E6
:100F3000FF920F931F93CF93DF938C01C090180201
:100F4000D0901902E0901A02F0901B0280910002EA
:100F500090910102A0910202B0910302C82AD92AFD
:100F6000EA2AFB2ACFE1D0E0BC2ED701C6010C2E25
:100F700004C0B695A795979587950A94D2F780FDFA
:100F80000EC0219788F7B12C8B2DDF91CF911F9147
:100F90000F91FF90EF90DF90CF90BF900895B80130
:100FA0008C2F0E940906019761F3EECFCF93DF9358
:100FB000EC010E949407BE01DF91CF910C940906C9
:100FC0000E94D607292F2F7092959F7092509E30C5
:100FD00078F4E92FF0E0EC5EF14E0C94991C803F20
:100FE00019F020F4883E20F481E00895843FE1F375
:100FF00080E00895883EC0F3813FD1F7F5CF822F7E
:1010000086958695869508950C94B6040C94E10413
:101010008AEA90E00E9406088AEA90E00C940408AC
:10102000FC018081813099F48185882339F081E049
:1010300080937E018AEA90E00C94060882858823DA
:10104000B1F382E080937E0188EA90E0F5CF8230B0
:10105000C1F4818581110FC08285811108C083E0B0
:1010600080937E018AEA90E00E940608E3CF84E044
:1010700080937E01089585E080937E010E94080898
:10108000D9CF86E0F5CFCF93DF93EC018881833011
:1010900031F40E9408080E9408080E94080888810C
:1010A000843020F0DF91CF910C940808DF91CF912C
:1010B000089527982F98089526982E980895259892
:1010C0002D98089556985E980895279A2F9A089516
:1010D000269A2E9A0895259A2D9A0895CF92DF92F6
:1010E000EF92FF92CF936B017C01C701AA27BB2728
:1010F000C0E10097A105B10519F4D701CB01C0E00B
:10110000492F5A2F6B2F772741155105610571051E
:1011100019F0C85FDB01CA01AC01BD01E4E07695BE
:10112000679557954795EA95D1F7411551056105A2
:10113000710519F0CC5FDB01CA01AC01BD0132E0E1
:1011400076956795579547953A95D1F7411551058D
:101150006105710519F0CE5FDB01CA01B695A7954F
:1011600097958795892B8A2B8B2B09F0CF5F0E944F
:1011700062080E945F080E945C080E945908C150E2
:10118000C73040F4EC2FF0E0EE5DF14E0C94991C6A
:101190000E946B08C701B601CF91FF90EF90DF90DE
:1011A000CF9008950E946B080E946808F3CF0E94B8
:1011B0006B080E946508EECF0E946B080E946808C9
:1011C000F8CF0E946E086093180270931902809302
:1011D0001A0290931B020C949E040F931F9341E0FC
:1011E00050E060E070E004C0440F551F661F771F99
:1011F0008A95D2F7CB01BA0160957095809590954C
:10120000009118021091190220911A0230911B02CC
:1012100060237123822393231F910F910C94E10883
:101220009091FB01809589238093FB01282F2770E3
:1012300071F4282F082E000C330B9217130639F087
:101240008595859585950E94ED081092FB0108957E
:101250000F931F9341E050E060E070E004C0440F42
:10126000551F661F771F8A95D2F7809118029091BB
:101270001902A0911A02B0911B028A019B01082B4E
:10128000192B2A2B3B2BC901B8011F910F910C94EC
:10129000E108209828982198299822982A9823983C
:1012A0002B9852985A9853985B983E984698089570
:1012B0008098889A8198899A84988C9A85988D9A32
:1012C00086988E9A87988F9A0895CF93DF9300D04F
:1012D0000F92CDB7DEB790916402943019F58983EF
:1012E0007B836A8382E08093E9008FEF9091E8002E
:1012F000815095FD06C095ED9A95F1F7000081119A
:10130000F5CF8091E80085FF0DC050E040E063E03C
:1013100070E0CE0101960E9411028091E8008E7764
:101320008093E8000F900F900F90DF91CF91089578
:10133000BC0184E00C946509BC0183E00C94650950
:10134000CF93DF93EC0180912A018823B1F1809142
:101350001C0287FF32C060E282E08093E9008FEFD9
:101360009091E800815095FD06C095ED9A95F1F7B2
:1013700000008111F5CF8091E80085FF1BC08091AE
:101380002A0170E050E040E0811104C050E040E0EC
:1013900068E070E0CE010E9411028091E8008E7733
:1013A0008093E80080E2FE01A2E4B2E001900D9299
:1013B0008A95E1F7DF91CF91089568E081E0CDCF84
:1013C0008FE39CE90197F1F700C0000080917E0156
:1013D000823079F028F4813039F010927E0108953E
:1013E000833011F08530C9F78AEA90E00E94040842
:1013F000F4CF88EA90E0FACFEF92FF920F931F9319
:10140000CF93DF930E9462080E945F080E945C08ED
:101410000E94590888E8E82EF12C8FEF90E0F70140
:10142000918380830AE810E0F80191838083CCE8FF
:10143000D0E0998388830E946B08FFEF20E782E069
:10144000F15020408040E1F700C000000E94680891
:101450009FEFE0E7F2E09150E040F040E1F700C09C
:1014600000000E9465082FEF80E792E02150804045
:101470009040E1F700C000000E945F08EFEFF0E746
:1014800022E0E150F0402040E1F700C000000E945F
:101490005C088FEF90E7E2E081509040E040E1F798
:1014A00000C000000E945908809106028770FFEF7B
:1014B0008F9FC001112495958795959587959927BC
:1014C000F70191838083F8019183808399838883D6
:1014D0000E9462080E945F080E945C08DF91CF9121
:1014E0001F910F91FF90EF900C945908CF9384E0D7
:1014F00090E00E949F1CC82F81E290E00E949F1CF8
:10150000982F8C2FCF9108956FEE7EEF90E080E0C2
:101510000E94D11C60E082E090E00E94B31C60E079
:1015200083E090E00E94B31C10920002109201022E
:10153000109202021092030260E084E090E00E94A8
:10154000B31C60E081E290E00E94B31C60E085E0A3
:1015500090E00E94B31C60E086E090E00E94B31C23
:101560006FEF87E090E00E94B31C40E050E0BA01CA
:1015700088E090E00E94C51C60E08DE090E00E9451
:10158000B31C40E050E0BA0188E190E00E94C51C25
:1015900060E087E190E00E94B31C40E050E0BA01B7
:1015A0008CE190E00E94C51C60E080E290E00E9427
:1015B000B31C40E050E0BA0188E190E00E94C51CF5
:1015C000109206021092070210920802109209026D
:1015D00084E08061809306024091060250910702E8
:1015E00060910802709109028FE090E00E94C51C92
:1015F00040E050E0BA0183E190E00C94C51C1092E9
:10160000FE0180912A01EEE5F1E0882359F08091F6
:101610001C0287FF07C08EE1DF011D928A95E9F762
:101620000C949E0486E0F8CF1F93CF93DF93CDB741
:10163000DEB7AA970FB6F894DEBF0FBECDBF86E621
:1016400092E02091F100FC012193CF01F2E08E366F
:101650009F07B9F780916702833009F46FC0B8F42F
:10166000813009F446C0823009F4B0C08091E800AE
:1016700083FF7BC280916602909167029A3008F0E6
:1016800074C2E92FF0E0E75DF14E0C94991C8A30AA
:1016900009F48BC08B3009F46EC0893039F7809122
:1016A0006602813219F780916A0290916B0202976B
:1016B000E8F68091E800877F8093E8008091E80059
:1016C00082FF37C09091F3008091F200029729F4D5
:1016D0008091F1008B7F813021F48091F100809323
:1016E00041028091E8008B778093E8000E943B02E2
:1016F000BDCF80916602813A09F0B8CF8091E800B1
:10170000877F8093E80080916A0290916B02892B19
:1017100061F460E282E492E070E00E94ED02809168
:10172000E8008B778093E800A1CF60E090E080E054
:10173000F3CF809164028111C1CF98CF809166026E
:10174000813A09F093CF80916A0290916B02892BC4
:1017500009F08CCF8091E800877F8093E80080912A
:10176000E80080FFFCCF80912A018093F1008091F6
:10177000E8008E77B9CF80916602813209F076CF8A
:1017800080916A0290916B02892B09F06FCF809152
:10179000E800877F8093E8000E943B028091680206
:1017A00080932A010E94FF0A61CF809166028132F4
:1017B00009F05CCF8091E800877F8093E8000E9469
:1017C0003B02809169028093400250CF8091660273
:1017D000813A09F04BCF8091E800877F8093E80041
:1017E0008091E80080FFFCCF80914002BECF80381E
:1017F00099F0823809F0B9C180916A028F70873000
:1018000008F0B3C18093E9008091EB0085FB882745
:1018100080F91092E90006C0809162029091630203
:10182000911182609091E800977F9093E8008093F7
:10183000F1001092F1008091E8008E7792C1882328
:1018400009F480C1823009F090C180916802811151
:1018500083C180916A028F702FEF280F263008F025
:1018600084C18093E9002091EB0020FF75C1933083
:1018700031F48091EB0080628093EB006DC1909118
:10188000EB0090619093EB0021E030E001C0220F6B
:101890008A95EAF72093EA001092EA008091EB0023
:1018A0008860EACF811161C1109168021F77809131
:1018B000E3008078812B8093E3008091E800877FAC
:1018C0008093E8000E943B028091E80080FFFCCFFB
:1018D0008091E30080688093E30082E0111183E04F
:1018E0008093640242C18058823008F03EC18091EA
:1018F0006802909169028C3D23E09207A1F583E094
:101900008A838AE289834FB7F894DE01139620E038
:101910003EE051E2E32FF0E050935700E49120FFC6
:1019200003C0E295EF703F5FEF708E2F90E0EA30DA
:10193000C0F0C7968D939D932F5F243159F74FBF09
:101940008091E800877F8093E8006AE270E0CE0132
:1019500001960E94ED028091E8008B778093E80069
:1019600004C1C096E7CF40916A0250916B02292FC3
:1019700033272330310509F444C078F5213031058F
:1019800009F46FC08BE390E0E9EAF2E02230310520
:1019900009F0EBC02091E800277F2093E800209118
:1019A0006C0230916D028217930708F49C0140E0AD
:1019B0002115310509F064C0411162C08091E80031
:1019C00082FDC9CF80916402882329F2853019F203
:1019D0008091E80083FFF2CFBECF21323105A9F11B
:1019E0002232310509F0C1C04115510509F443C047
:1019F0004130510509F0B9C08DE690E0ECEFF1E01F
:101A0000C9CF992781309105C1F0009759F002970D
:101A100009F0ABC0E6EFF2E0E4918E2F90E0E6EF44
:101A2000F2E007C0E0E4F3E0E4918E2F90E0E0E420
:101A3000F3E0009709F499C0ADCFEEE0F3E0E49154
:101A40008E2F90E0EEE0F3E0F4CF4115510571F0F8
:101A50004130510509F089C089E090E0E4EDF2E001
:101A600099CF82E190E0E4EEF2E094CF89E090E05B
:101A7000EBEBF2E08FCF80E490E0E9E6F2E08ACF92
:101A800080916402882309F466CF853009F463CF1E
:101A90008091E80083FD5FCF8091E80082FD8ECFCA
:101AA0008091E80080FF84CF9091F3008091F20054
:101AB0002115310519F08830910550F041E0089763
:101AC00009F040E08091E8008E778093E80070CFC5
:101AD00044914093F1003196215031090196E8CFAD
:101AE000803809F042C08091E800877F8093E80049
:101AF000809165028093F1009ECE811136C01091D5
:101B00006802123090F58091E800877F8093E800AA
:101B1000109365020E943B02112311F084E005C07E
:101B20008091E30087FDFACF81E08093640242E078
:101B300061EC81E00E945A0242E261EC82E00E9484
:101B40005A0213C080916802813079F481E09330A9
:101B500009F080E0809363021092E9008091E80030
:101B6000877F8093E8000E943B028091E80083FF1A
:101B70000AC08091E800877F8093E8008091EB00A5
:101B800080628093EB00AA960FB6F894DEBF0FBE7A
:101B9000CDBFDF91CF911F910895CF93C82F87308C
:101BA00070F580911E0190911F01892B89F564E6E3
:101BB00070E080E40E94D21B90931F0180931E016D
:101BC000892BD1F464E670E082E10E942E1C909390
:101BD0001F0180931E01892B79F481E090E001C000
:101BE000880FCA95EAF764E670E080950E942E1C83
:101BF00090931F0180931E01CF910C94811C8A3019
:101C0000B9F040F4883071F0893079F0209A289842
:101C1000CF9108958C3091F070F08D30B9F73E9AE5
:101C20004698F6CF219A2998F3CF229A2A98F0CF96
:101C3000239A2B98EDCF529A5A98EACF539A5B98F1
:101C4000E7CF80E290E090931F0180931E01809186
:101C50007C0181110EC00E94CC1B81E080937C012D
:101C60002FEF83ED90E3215080409040E1F700C0DA
:101C7000000064E670E080E40E94D21B90931F0194
:101C800080931E01892B09F04EC064E670E080E06D
:101C90000E942E1C90931F0180931E01892B09F036
:101CA00042C064E670E080E00E942E1C90931F0109
:101CB00080931E01892BB9F564E670E08FE30E94E2
:101CC0002E1C90931F0180931E01892B61F50E94A9
:101CD000811C64E670E080E40E94D21B90931F0197
:101CE00080931E01892BF9F464E670E08CE00E9479
:101CF0002E1C90931F0180931E01892BA1F464E692
:101D000070E080E00E942E1C90931F0180931E01C2
:101D1000892B49F464E670E08FE30E942E1C9093B7
:101D20001F0180931E010E94811C80911E01089555
:101D3000CF93873050F580911E0190911F01C0E034
:101D4000892B71F464E670E081E40E94D21B9093C9
:101D50001F0180931E01892B31F0C0E00E94811C7D
:101D60008C2FCF91089584E690E00E945D1C97FF30
:101D700005C090931F0180931E01EFCFC82FC0951F
:101D800010921F0110921E01E9CFCFB18FB186953D
:101D900086958C73C3708C2BC82FC095E1CF1F9292
:101DA0000F920FB60F9211242F933F934F935F938F
:101DB0006F937F938F939F93AF93BF93CF93DF9353
:101DC000EF93FF93D091E900DF708091EC00C82F72
:101DD000C17080FDC0E81092E9008091F000877F1B
:101DE0008093F00078940E94140B1092E900809187
:101DF000F00088608093F000CD2BCF70C093E90095
:101E0000FF91EF91DF91CF91BF91AF919F918F9112
:101E10007F916F915F914F913F912F910F900FBEE6
:101E20000F901F9018951F920F920FB60F921124CA
:101E30002F933F934F935F936F937F938F939F93D2
:101E4000AF93BF93EF93FF938091E10082FF09C0AE
:101E50008091E20082FF05C08091E1008B7F80933A
:101E6000E1008091DA0080FF24C08091D80080FFDB
:101E700020C08091DA008E7F8093DA008091D900B3
:101E800080FF9BC080E189BD82E189BD09B400FE6D
:101E9000FDCF81E08093640280913F02811109C0EF
:101EA0000E94C1010E948C028091E20084608093B4
:101EB000E2008091E10080FF17C08091E20080FF86
:101EC00013C08091E2008E7F8093E2008091E20057
:101ED00080618093E2008091D80080628093D80076
:101EE00019BC85E0809364028091E10084FF29C0E1
:101EF0008091E20084FF25C080E189BD82E189BD37
:101F000089B5982F917080FFFBCF8091D8008F7D8D
:101F10008093D8008091E1008F7E8093E1008091D2
:101F2000E2008F7E8093E2008091E20081608093E6
:101F3000E20080916502882309F445C084E0809323
:101F400064028091E10083FF27C08091E20083FF5B
:101F500023C08091E100877F8093E10082E080933D
:101F60006402109265028091E1008E7F8093E1000F
:101F70008091E2008E7F8093E2008091E200806198
:101F80008093E20042E060E080E00E945A0280918B
:101F9000F00088608093F000FF91EF91BF91AF91C6
:101FA0009F918F917F916F915F914F913F912F9171
:101FB0000F900FBE0F901F90189519BC10926402DD
:101FC00010923F0276CF8091E30087FD93E09093DB
:101FD0006402B7CF78941F921FB61F9211248F937B
:101FE0009F93AF93BF9380916E0290916F02A091E7
:101FF0007002B09171020196A11DB11D80936E0215
:1020000090936F02A0937002B0937102BF91AF9151
:102010009F918F911F901FBE1F9018952FB7F89416
:1020200080916E0290916F02A0917002B091710246
:102030002FBF08950F931F93CF93DF93C62FD42FF5
:10204000022FFC0182818823A1F0609374020E9418
:102050000E109093730280937202C77081E001C0EA
:10206000880FCA95EAF7DF91CF911F910F910C94D9
:10207000680480917402681343C020917202309109
:1020800073024FB7F89480916E0290916F02A09105
:102090007002B09171024FBF821B930B883C910577
:1020A00078F510E21D0F6D17B9F080E2860F8830C9
:1020B00040F4C77081E001C0880FCA95EAF70E941A
:1020C0006104183048F481E09D2F977001C0880F9B
:1020D0009A95EAF70E946804802F0E94E104802FFD
:1020E0000E94B604183098F4D77081E001C0880FC0
:1020F000DA95EAF7DF91CF911F910F910C9461046B
:10210000C77081E001C0880FCA95EAF7F3CFDF916D
:10211000CF911F910F9108954F925F926F927F928E
:102120008F929F92AF92BF92CF92DF92EF92FF92E7
:102130000F931F93CF93DF9300D000D00F92CDB7B2
:10214000DEB77C01DC0113968D919C911497892B4D
:1021500041F01C911196DC90812F8D218F3F09F069
:102160003DC50F900F900F900F900F90DF91CF9182
:102170001F910F91FF90EF90DF90CF90BF90AF90A5
:102180009F908F907F906F905F904F9008950E94E6
:102190009407082F682F89819A810E942904E12FD2
:1021A000F0E0B6E0DB9EE00DF11D112424E5029F76
:1021B000E00DF11D1124EE0FFF1FE455FF4F0591B7
:1021C0001491D70112968C918111E0C00A32BDE5BD
:1021D0001B07F1F5D70112968C918823C9F18091E4
:1021E000060291E0980F9770887F953008F4892B4C
:1021F00080930602809106028770BFEF8B9FC0011B
:1022000011249595879595958795992790938900A1
:102210008093880090938B0080938A0090938D0028
:1022200080938C0040910602509107026091080251
:10223000709109028FE090E00E94C51C6091180225
:102240007091190280911A0290911B020E946E08EF
:10225000C80197558F3F910511F008F0E4C0209117
:102260001C0130911D012817390724F490931D019A
:1022700080931C01F701228136E1389F5001399F7C
:10228000B00C1124C5018A5F9E4F6C01DC01509691
:102290002C935097928116968C911697992309F456
:1022A000B4C01A961C930E9319978F5F16968C9351
:1022B0000E940E10F601968785878091FF01878323
:1022C0008091FD019091FE01892B80870190F08122
:1022D000E02D309741F0D60154966D917C91C50167
:1022E000845F9E4F099510938A0100938901D7015D
:1022F00012968C91882309F484C4109274020230DF
:10230000BCE51B0708F4C0C10631ECE51E0738F038
:1023100098012B5F3C452730310508F0B5C10E947C
:10232000760A90931D0280931C020F30FCE51F0774
:1023300009F48BC108F00CC108303CE5130709F41F
:102340006EC108F0DFC004309CE5190709F45BC1D9
:1023500008F0C7C00230BCE51B0709F450C18091EA
:102360001C02826003301C4509F4DEC060911C022F
:1023700010911D0284E090E00E94B31C612F81E265
:1023800090E00E94B31C0E94FF0A76C080911C015D
:1023900090911D01019609F419CF66E0C62E61E007
:1023A000D62EB12CA12C9924939480911C0190914C
:1023B0001D018A159B050CF409CFD60116968C9148
:1023C00016978823D9F019968D919C9180179107C3
:1023D00039F48091890190918A018017910771F0F9
:1023E000F6019786148703878189811103C0C6018E
:1023F0000E945B05C60106960E947C05FFEFAF1A9E
:10240000BF0A26E1C20ED11CD0CF882309F46FCFBA
:10241000F6018189882309F46ACFC501845F9E4F44
:102420000E947C0564CF043FFCE51F0709F44AC005
:1024300098F4093D3CE5130709F440C00A3D8CE5DA
:10244000180709F44BC0083D9CE5190709F04FCF68
:1024500026E241EE61EE0DC0063FACE51A07D1F170
:10246000A8F127E245EE66EE073FECE51E0709F00E
:102470003ECFC7010E941A108091FB01877009F4BA
:1024800070CEF7018281882309F46BCE82E00F9031
:102490000F900F900F900F90DF91CF911F910F91A0
:1024A000FF90EF90DF90CF90BF90AF909F908F9074
:1024B0007F906F905F904F900C94100927E245EE4B
:1024C00065EED7CF26E241EE60EED3CF27E245EEB0
:1024D00064EECFCF26E241EE62EECBCF28E241E0C0
:1024E000EFCF80911C0280610630FCE51F07E1F010
:1024F00080911C02886007301C45B0F080911C025E
:10250000806212C00B303CE5130709F496C078F4E2
:1025100009309CE5190709F486C080911C028C6083
:102520000A301C4509F022CF80931C021FCF8091F6
:102530001C028B7F0D30BCE51B07B1F380911C02A0
:102540008D7F0E301C4580F380911C02877FECCF7D
:102550000B3FFCE51F0709F45AC048F502313CE582
:10256000130709F47AC060F400319CE5190709F4F7
:1025700070C080911C028F7B01311C45A9F2F6CE00
:102580000431BCE51B0709F476C008F46CC00531C2
:102590001C4509F0EBCE80911C0282FB992790F933
:1025A00021E0922790FB82F990FB83F9BDCF0E3F8B
:1025B0002CE5120709F445C070F40C3F8CE51807B0
:1025C00051F180911D028E7F0D3F1C4509F0CECE4A
:1025D00080931D02CBCE0115ADE51A0709F447C063
:1025E00040F101301D4509F0C1CE80911D02982FA8
:1025F000909591708E7F892B90FB81F9E9CF809126
:102600001C02816091CF80911C0284608DCF8091EB
:102610001D028160DDCF80911D028260D9CF809143
:102620001C02806481CF0E94FF0A80911C02806896
:102630007BCF80911D028360CBCF80911C028E7F67
:1026400073CF80911D028D7FC3CF80911C028F7E3E
:102650006BCF80911C028F7D67CF0E94FF0A809113
:102660001C028F7761CF80911C02837F5DCF8091A8
:102670001D028C7FADCF0E94FF0A90911C02892F12
:1026800097FB87F9805850CF0631FCE51F0709F00A
:10269000C5C28091FE018A7A91E009F490E090939E
:1026A0008B0169E2811165E38CE591E00E94790379
:1026B0000E94BB03E1CE0E94FF0A2FEF34E38CE0BF
:1026C000215030408040E1F700C00000F89481E0E4
:1026D0008093E00080E28093D8001092C900AFE1BF
:1026E000BEE41197F1F700C000001DBA1092680017
:1026F0001CBC10BE1FBA10927A0010926E0010928D
:102700006F0010927100109272001092C900109226
:10271000BC0014B817B81AB81DB810BA1092BC0093
:1027200015B818B81BB81EB811BA0C94003FA4CE47
:102730000E94840AA1CEC8010E940004D82E85C23E
:10274000212F2F70A22E107F19F0A29420EFA22229
:10275000DD20C9F0AA2069F080E2800F883010F0F7
:1027600081100BC08091FE01A82AA092FE010E9458
:10277000BB03802F0E94E10415C08091FD01A82AAF
:10278000A092FD01F4CF802F0E94B604AA2051F040
:10279000005E083010F0811044C08A2D0E94B403FE
:1027A0000E94BB03EB2DE850FF0B349710F40E94FE
:1027B0004F05CC20B1F08091FB0180FD12C0D70104
:1027C00012961C928595859585950E942809C701CA
:1027D0000E948C108091FB018595859585950E94BE
:1027E000ED0885E0F701DE01119601900D928A95C2
:1027F000E1F789819A810E9400049A81E981F0E0E1
:10280000B6E09B9FE00DF11D112424E5829FE00DB1
:10281000F11D1124EE0FFF1FE455FF4F8591949198
:10282000A0CCA0948091FD01A822A092FD01B8CF78
:10283000312F3F70932E107F103219F0929490EF49
:102840009922882041F081E0881631F1DD2079F16C
:10285000AA2041F18ECFDD2091F09091FF01892FC8
:102860008929A11003C00E9468049CCFA1E0AA128C
:10287000FACF981709F496CF8093FF0193CFA11058
:1028800006C00E94AE03892D0E9461048BCFB1E087
:10289000AB1609F487CFF5CFDD2031F0E1E0EA1582
:1028A00008F480CF892DDFCFA1107CCFECCFAA20F8
:1028B00051F3F9E38F1209C02FEF37EE83E0215077
:1028C00030408040E1F700C00000802F0E94B60435
:1028D00069CF812F86958695837061F0813009F0EC
:1028E00061CFC8019370D11002C090E080E00E94D7
:1028F000720458CFC8019370D11002C090E080E0FC
:102900000E9488044FCF812F837009F066C0D110D8
:1029100049CF802F829586958770880F880F602F0A
:102920006F70462E512C712C612C082E04C0440C63
:10293000551C661C771C0A94D2F740E050E0BA019F
:1029400004FF0FC04FE050E060E070E004C0440FAF
:10295000551F661F771F8A95D2F740955095609551
:102960007095812F869586958370823019F1D8F401
:1029700000910002109101022091020230910302A5
:10298000813069F04429552966297729CB01BA019C
:1029900060237123822393230E94AC0403CF402A37
:1029A000512A622A732ACB01BA0164297529862922
:1029B0009729F2CF442955296629772900910002E9
:1029C000109101022091020230910302CB01BA0161
:1029D0006027712782279327DFCF8695DD2011F0AE
:1029E000812F8170882309F4DDCE802F8295869512
:1029F0008770880F880F602F6F70462E512C712CB6
:102A0000612C082E04C0440C551C661C771C0A94CB
:102A1000D2F740E050E0BA0104FF0FC04FE050E0B1
:102A200060E070E004C0440F551F661F771F8A9551
:102A3000D2F74095509560957095812F8695869533
:102A40008370823019F1D8F40091180210911902A4
:102A500020911A0230911B02813069F044295529D6
:102A600066297729CB01BA0160237123822393233E
:102A70000E94E10897CE402A512A622A732ACB018C
:102A8000BA016429752986299729F2CF4429552945
:102A900066297729009118021091190220911A02D3
:102AA00030911B02CB01BA0160277127822793273F
:102AB000DFCF1F70DD2029F0812F0E942809802F91
:102AC000D2CE802F0E946104812F0E94ED086ACE31
:102AD000802F92EF891609F44EC0981578F0A0EF78
:102AE0008A1619F1B1EF8B1609F43DC0DD2009F407
:102AF00065C0A1103ECE812F8F713AC0E3EF8E16D4
:102B000009F43EC0F4EF8F12F1CFDD2009F44BC081
:102B10001F71812F0E94280938E0139FC0011124E2
:102B200083608093FB01812F23C0DD20B9F0A110C9
:102B300039CE1F7161E070E080E090E004C0660F64
:102B4000771F881F991F1A95D2F7009118021091CC
:102B5000190220911A0230911B02A6CF21E02A15FA
:102B600008F420CEE6CF812F8F71DD2009F4ADCFA0
:102B70000E94280917CE812F8F71DD20C9F3A5CFC0
:102B800060E070E0CB01DD2009F472CF1F7161E0DD
:102B900070E080E090E004C0660F771F881F991FE7
:102BA0001A95D2F765CF81E00E94100981E08A155D
:102BB00008F0F8CD82E00E941009F4CDAA2059F067
:102BC000893309F082CE9FEFA7EEB3E09150A04089
:102BD000B040E1F778CE812F8F7177CF85E0F70194
:102BE000DE01119601900D928A95E1F7D7011296B8
:102BF0002C9189819A812111CACA0E940004082F50
:102C0000CECA06311C4599F480918B0169E281118D
:102C100065E38CE591E00E944F034ACD0115ECE598
:102C20001E0709F448CD0F3D1C4509F481CDD7019D
:102C30000D911C91882309F47ECDC8010E94940750
:102C4000D82E682FC8010E942904B8018D2D0E943A
:102C500009068C01882EF701A580A2944FE0A422DA
:102C6000D280D1101092FD018091FB01877099F004
:102C7000DD2089F0812F807F803421F080E2800F79
:102C8000883048F082E00E9410098091FB01877033
:102C9000CC24C3948111C12CB12EB2943FE0B32255
:102CA000FBE0FB1508F47ECDEB2DF0E0ED5CF14E82
:102CB0000C94991C1F93CF93DF9380919101807F97
:102CC000A9F480918E01882389F08091C301D0916D
:102CD000920160918C0170918D01A0918F01B09152
:102CE0009001C62FC72316E0D81304C0DF91CF91FF
:102CF0001F91089590E0109711F0CF3F19F40196BD
:102D00008770F2CF189F9001199F300D1124F9019F
:102D1000ED56FE4F41814713F2CF40814613EFCF6E
:102D200042814111ECCF438154814A1B5B0B483CEB
:102D3000510528F7809191018F70806180939101F6
:102D4000F901E856FE4F80818F70806180838CE8A6
:102D500091E00E948C10DF91CF911F910C94570449
:102D6000AF92BF92CF92DF92EF92FF920F931F9399
:102D7000CF93DF93CDB7DEB761970FB6F894DEBF80
:102D80000FBECDBF8C0185E0F801DE011D960190DC
:102D90000D928A95E1F7F80180819181E2802CE81B
:102DA000A22E21E0B22E60918F01709190016115E9
:102DB000710509F43EC130918C0140918D01232FA2
:102DC00024232F3F09F435C1C380D480F0908E01B5
:102DD000F601E61BF70BFF2009F4FBC020919101DF
:102DE000522F507FE83CF10508F0BBC0511178C06C
:102DF000FE2C491321C038131FC0E1101DC02F70D5
:102E0000206120939101C5010E948C108091910155
:102E1000F80185838F2D61960FB6F894DEBF0FBE43
:102E2000CDBFDF91CF911F910F91FF90EF90DF9079
:102E3000CF90BF90AF900895CD2829F0282F292357
:102E40002F3F09F014C120E0F22FF170DF2E20FF98
:102E50003DC02091C3014091920156E0241315C05A
:102E60008D879E878D859E850E94D607292F229566
:102E70002F702230F8F0243020F59F70F9F0F8011F
:102E80009581907FD9F4D12C1FC030E0529FF00182
:102E9000539FF00D1124ED56FE4F6181961306C02D
:102EA0006081861303C06281E61210C02F5F3F4F1E
:102EB0002770D4CF9F7011F0882329F3805E88306B
:102EC00010F3C8010E948C10FD2CA4CFEE2009F451
:102ED000A1CF80919101816080939101F12C9ACFD3
:102EE000491312C0381310C0E1100EC0F801258339
:102EF000C8010E948C1086E0F801ACE8B1E00190B6
:102F00000D928A95E1F786CF8D879E878D859E8568
:102F10000E94E007882309F1EE20F9F080919101E9
:102F2000803270F020918C0130918D0138872F8391
:102F30001986DB86CA868C87CE0107960E948C1084
:102F400086E0F801ACE8B1E001900D928A95E1F7D6
:102F50000E945A16FF24F3945DCFC8010E948C1082
:102F6000F9CF51110AC08CE891E00E948C1086E0E4
:102F7000F50111928A95E9F7B1CF49130FC03813C3
:102F80000DC0E1100BC0F8012583C8010E948C1010
:102F900086E0F50111928A95E9F73CCF8D879E87EF
:102FA0008D859E850E94E0078823B9F2EE20A9F264
:102FB00080919101803220F220918C0130918D011D
:102FC0003A8329831B82DD82CC828E83CE010196D7
:102FD000B5CFE83CF105E0F6FE2CEE2009F4BDCFBC
:102FE000491316C0381314C08091910180FD83CF1E
:102FF000982F907F09F47FCFF8018583903F09F4E3
:1030000077CF982F907F905F8F70892B858370CFBB
:103010008D879E878D859E850E94E007811190CFC8
:1030200080919101816080939101C8010E948C1070
:10303000F1CEEE2009F491CF8D879E878D859E85F8
:103040000E94E007F82E882309F487CF86E0F80174
:10305000ACE8B1E001900D928A95E1F780918C0186
:1030600090918D010E94D6070E945A16D3CE21E07E
:103070002E25EACE1F93CF93DF93CDB7DEB76797A8
:103080000FB6F894DEBF0FBECDBF4B8B5C8B6D8B44
:103090007E8B8F8B1A8A198A85E0FE017396DE017A
:1030A0001D9601900D928A95E1F786E0FE013D960E
:1030B000DE01179601900D928A95E1F7CE010796F1
:1030C0000E94B016811112C086E0FE013796DE0123
:1030D000119601900D928A95E1F78A859B85892B3F
:1030E00029F08F81988589238F3FB1F516E0809173
:1030F000C3019091920189131DC067960FB6F89491
:10310000DEBF0FBECDBFDF91CF911F91089596E036
:10311000929FD001939FB00D1124AD56BE4FFE017A
:10312000319601900D929A95E1F7809392010E9459
:103130005704DCCF819FC00111248D569E4F0E9401
:10314000B0168823D1F28091C30190E00196877078
:1031500099278093C301CBCF2091920130E0C90120
:103160000196877099274091C3014817190679F68F
:103170000E94FF0A109292011092C30186E0ECE8CF
:10318000F1E0DF011D928A95E9F7B0CF8F929F920F
:10319000BF92CF92DF92EF92FF920F931F93CF9344
:1031A000DF9380911E0190911F01892B91F08091F6
:1031B0007F018F5F80937F0181110BC00E94210EE0
:1031C00090E090931F0180931E01892B11F40E94BF
:1031D000FC092AE0822E22E0922E740110E000E029
:1031E00097E0C92EC00E802F0E94CD0D8C2D0E941D
:1031F000CD0D802F0E94980EE70199917E01D12C70
:10320000891729F0FE0131978083DD24D3948C2D1A
:103210000E94980EF7019681891709F47AC0868377
:1032200081E08D29182B0E9449090F5F0730C1F6F4
:103230000E940E1060918101709182019093820131
:10324000809381012091800130E0261B370B820F93
:10325000931F6BEF70E00E94851CE82E392F082F1A
:1032600080938001F0908401FF2009F4A4C01092A3
:103270008401E0910402F0910502AF01425F5F4FCB
:1032800020E08BEFB82E6BEF70E0A191AB3F99F08F
:10329000CA2ED12C8E2D932F0A17E8F18C199D0977
:1032A000092E000CAA0BBB0B4E97A105B105C8F166
:1032B000DF011197BC92E417F50739F720938401D9
:1032C000111102C0211179C010928301A091040252
:1032D000B091050290918401E1E2F2E080E0319149
:1032E000E40129914E01321751F03C913B3FD9F452
:1032F0000C93AF0141505109EA01288391E01196E6
:10330000D2E0EF32FD0759F7909384018093830157
:1033100058C080E086CFDB01AC19BD098A0F9B1F26
:10332000BFCF2F2DC8CF81E0EACFD89FF001D99F22
:10333000F00D1124EA5FFE4F2289338921153105F2
:1033400011F428EC30E0D89FF001D99FF00D112442
:10335000EA5FFE4F8681882311F1458556856FB758
:10336000F89480916E0290916F02A0917002B091DA
:1033700071026FBF841B950B2817390780F4CD9F0E
:10338000700111248189811105C0C7018A5F9E4F98
:103390000E945B05C701845F9E4F0E947C05CF5F42
:1033A0008C2F90E020911C0130911D0128173907C6
:1033B0000CF0BBCF0EC0111187CF8091830181111A
:1033C00083CF80911C0190911D01C0E0D6E1019650
:1033D00039F7812FDF91CF911F910F91FF90EF90DF
:1033E000DF90CF90BF909F908F900895CDB7DEB7BC
:1033F0002A970FB6F894DEBF0FBECDBF84B7877F84
:1034000084BF0FB6F894A89580916000886180937E
:103410006000109260000FBE80E890E00FB6F89454
:1034200080936100909361000FBE85B7806885BF6F
:1034300085B7806885BF0E94C1010E948C0280917F
:10344000E20084608093E200789480916402882393
:10345000A1F01091E9001F709091EC00892F81700C
:1034600090FD80E8182B1092E9008091E80083FD20
:103470000E94140B1F701093E90082E084BD93E05A
:1034800095BD9AEF97BD80936E000E94210E90E04B
:1034900090931F0180931E010E9449090E945809C0
:1034A000EAE0F2E0A1E2B2E011921D9222E0E831FE
:1034B000F207D1F78EE090E00E94E71C80930402AF
:1034C00090930502FC010E962BEF21938E179F0718
:1034D000E1F790E080E00E94AD1C8F3E9E4F11F01E
:1034E0000E94840A89EA8093800089E080938100A9
:1034F00024982C983F988AB18F7C8AB96E98479A05
:103500008BB180638BB9769A8FE090E00E94A71C04
:103510006093060270930702809308029093090259
:1035200067708FEF689FB001112475956795759549
:1035300067957727709389006093880070938B005C
:1035400060938A0070938D0060938C000E94FC0948
:1035500090E080E00E94AD1C8F3E9E4F11F00E94D3
:10356000840A82E090E00E949F1C809330020E94B7
:10357000760A90931D0280931C0283E090E00E94E3
:103580009F1C682F70E090E080E00E94AC04609186
:1035900018027091190280911A0290911B020E94E8
:1035A0006E0880E291E090931F0280931E0288E1F2
:1035B000C82ED12C90E4992E2FE2A22E22E0B22E1A
:1035C00081E292E03EE0E32EE80E8091640200E1A9
:1035D00012E1853009F47DC00E94C618E1E3F2E0F3
:1035E000A1E2B2E010E000E0302F8D912191281788
:1035F00009F47EC090E0FF24F3942827422F4F2146
:1036000009F471C099833A838F2191E009F490E025
:103610009B830E940E108160782F9D838C8349814B
:103620005A816B818D810E943A18F801EF5CFD4F41
:103630008081F826F0820E944F0590912F02891711
:1036400021F20E944F0580932F02BFCF8091640228
:10365000843009F1109220020FB6F894A895C09218
:1036600060000FBE9092600083B7817F846083BF4B
:1036700083B7816083BF7894889583B78E7F83BF3B
:103680000FB6F894A89580916000886180936000DF
:10369000109260000FBE809163028823D1F00E94D7
:1036A000210E90E090931F0180931E010E94490912
:1036B0000E945809E1E2F2E01192AE16BF06E1F76E
:1036C0000E94C618E1E2F2E08191811128C0EE1259
:1036D000FBCF80916402853009F4B8CF0E94FF0AC5
:1036E0000E944F0579CF9F5FFF0C963009F086CF7F
:1036F0000F5F1F4F0E30110509F076CF8FEF8E83CD
:103700008F8318860E940E108160782F9A87898790
:103710004E815F8168858A850E943A188CCF09BDE9
:1037200019BD09B400FEFDCF8091D8008F7D809334
:10373000D8008091E00082608093E0008091E000FA
:1037400081FDFCCF0E94FF0AC4CF1F921FB61F92BB
:1037500011248F939F93AF93BF9380912002811187
:1037600013C080916E0290916F02A0917002B0918F
:1037700071024196A11DB11D80936E0290936F025C
:10378000A0937002B0937102BF91AF919F918F91FE
:103790001F901FBE1F9018951092B9008CE0809367
:1037A000B8000895EF92FF920F931F93CF93DF938A
:1037B000182FEB011092BC0084EA8093BC000E9499
:1037C0000E107C018091BC0087FF27C08091B9005A
:1037D000887F883029F08091B900887F8031D9F5C1
:1037E0001093BB0084E88093BC000E940E108C01F3
:1037F0008091BC0087FF24C02091B900287F90E011
:1038000080E02831B1F081E090E0203411F490E0C4
:1038100080E09195819591090CC0CF3FDC0791F232
:103820000E940E108E199F098C179D0758F28EEF7B
:103830009FEFDF91CF911F910F91FF90EF9008952F
:10384000CF3FDC07A9F20E940E10801B910B8C1752
:103850009D0770F2ECCF8FEF9FEFEBCF0F931F938D
:10386000CF93DF93EB018093BB0084E88093BC008F
:103870000E940E108C018091BC0087FF11C0209126
:10388000B900287F81E090E0283211F490E080E0D8
:10389000919581959109DF91CF911F910F91089595
:1038A000CF3FDC0741F30E940E10801B910B8C1759
:1038B0009D0708F38EEF9FEFEECF0F931F93CF93EB
:1038C000DF93EC0184E88093BC000E940E108C0111
:1038D0008091BC0087FF08C08091BB0090E0DF9121
:1038E000CF911F910F910895CF3FDC0789F30E947C
:1038F0000E10801B910B8C179D0750F38EEF9FEFDE
:10390000EECF84E98093BC000895AA1BBB1B51E154
:1039100007C0AA1FBB1FA617B70710F0A61BB70B3F
:10392000881F991F5A95A9F780959095BC01CD01E4
:103930000895EE0FFF1F0590F491E02D0994F99979
:10394000FECF92BD81BDF89A992780B50895A6E172
:10395000B0E044E050E00C94D91CA8E1B0E042E0B3
:1039600050E00C94D91C262FF999FECF92BD81BD51
:10397000F89A019700B4021639F01FBA20BD0FB6AD
:10398000F894FA9AF99A0FBE08950396272F0E9489
:10399000B41C0E94B31C252F0E94B41C242F0C942D
:1039A000B41C0196272F0E94B41C0C94B31CDC019C
:1039B000CB01FC01F999FECF06C0F2BDE1BDF89A3A
:1039C000319600B40D9241505040B8F708950F93CE
:1039D0001F93CF93DF938230910510F482E090E043
:1039E000E0917702F091780230E020E0B0E0A0E0D2
:1039F000309799F42115310509F447C0281B390B7C
:103A000024303105C0F58A819B816115710571F102
:103A1000FB0193838283FE0111C0408151810281A9
:103A2000138148175907F8F04817590799F4109768
:103A300061F012960C93129713961C933296CF0155
:103A4000DF91CF911F910F9108950093770210930A
:103A50007802F4CF2115310519F04217530718F4F5
:103A60009A01BD01EF01DF01F801C2CF9093780206
:103A700080937702D0CFFE01E20FF31F81939193E1
:103A80002250310939832883DACF20917502309191
:103A90007602232B41F420910201309103013093EF
:103AA00076022093750220910001309101012115C9
:103AB000310541F42DB73EB7409104015091050105
:103AC000241B350B40917502509176024217530723
:103AD00008F0B5CF241B350B2817390708F4AFCFF2
:103AE000BC016E5F7F4F2617370708F4A8CF640F1D
:103AF000751F7093760260937502FA01819391931A
:103B00009ECFCF93DF930097E9F0FC0132971382A9
:103B10001282C0917702D0917802DE0130E020E07D
:103B20002097A1F420813181820F931F209175028B
:103B3000309176022817390709F067C0F0937602B2
:103B4000E0937502DF91CF910895DA01AE17BF07B8
:103B500008F040C012964D915C9113979D0141155C
:103B6000510599F7D9011396FC93EE9312974D9155
:103B70005D91A40FB51FEA17FB0779F4808191814D
:103B80000296840F951FD90111969C938E93828182
:103B9000938113969C938E931297B0E0A0E08A8154
:103BA0009B810097B9F5FE0181919191E80FF91F72
:103BB00080917502909176028E179F0719F61097E3
:103BC00061F51092780210927702D0937602C0933A
:103BD0007502B8CFB383A28340815181840F951FB2
:103BE000A817B90771F44E5F5F4F8D919C911197A3
:103BF000480F591F5183408312968D919C91938356
:103C000082832115310509F0ADCFF0937802E0935E
:103C1000770298CFDE01EC01C2CF13961C921E9260
:103C20001297D3CFF894FFCFEF07EF07F807F80705
:103C3000FA07F807F807F807EF07EF07FF07F80795
:103C4000F807FF07C808D408D908D208D708DE0843
:103C5000DC08F70B1F0CB50D1F0CB50D520C730CC7
:103C6000B50D700D7D0DA013A01318141814691450
:0E3C7000D213D213D213831459156815681598
:103C7E0000007902200043081008E009000000004F
:103C8E00000000000000000000000000FFFF200008
:103C9E004C03A0094B039C09980901818283E20021
:103CAE00E900EA00B500B600B700CD008301CC00F4
:103CBE008A01920194012102230224022502260286
:0C3CCE0027022A02B300B4006F0070004F
:00000001FF
