:100000000DC2000027C2000025C2000023C200006C
:1000100021C200001FC200001DC200001BC2000060
:1000200019C2000017C200000C9425150C946B1423
:100030000C94C9170FC200000DC200000BC20000D3
:1000400009C2000007C2000005C2000003C2000090
:1000500001C200000C949717FDC10000FBC1000015
:10006000F9C10000F7C10000F5C10000F3C10000B4
:10007000F1C10000EFC10000EDC10000EBC10000C4
:10008000E9C10000E7C10000E5C10000E3C10000D4
:10009000E1C10000DFC10000DDC10000DBC10000E4
:1000A000D9C10000D7C10000D5C1000063036603B9
:1000B0006C03650368036B036A030F04830417046E
:1000C000E103E5031B04E8031E042904F303790498
:1000D000F7032D04FB0331045B04FF0335046504BF
:1000E00005043B044504EC032204EF0325040A0441
:1000F0004004510471047304DD0313048C0474057B
:100100007405A705A70524063807380738074206EF
:10011000B606C706C70678129F1254149F125414CD
:10012000EA120C1354140D141D1435002B00390061
:10013000E100E10000001E00140004001D00E100C9
:1001400051001F001A0016001B00E00029002000CB
:10015000080007000600E3002C002100150009003C
:100160001900E2005200220017000A0005000000FA
:10017000500030002D0000002E0000004F00340021
:100180002F000000310000004B0023001C000B007A
:10019000110000004E00240018000D001000E200C5
:1001A0004B0025000C000E003600E300280026005E
:1001B00012000F00370046002A002700130033000A
:1001C0003800E1004E004C006152E600E100E10021
:1001D000000000000100000001000100000000001C
:1001E0000000540000000100010000000000550064
:1001F00000000000010000000000560000000000A8
:100200000100000000005700000000000100000095
:1002100000002E00000000000100000000000000AF
:1002200000000000010000006300000085000000E5
:1002300001000000000000000000000001000000BC
:100240005F005C00590062000100000060005D007A
:100250005A0062000100000061005E005B00620065
:10026000010000000000000000000100010000008B
:100270000100000001000100000005010980A1014A
:10028000850319012AB700150126B70095017510DD
:100290008100C0050C0901A101850419012AA002F1
:1002A000150126A002950175108100C005010906FF
:1002B000A1018506050719E029E715002501950824
:1002C000750181020507190029EF1500250195F038
:1002D000750181020508190129059505750191022D
:1002E000950175039101C00660FF0961A1010962D2
:1002F000150026FF00952075088102096315002668
:10030000FF00952075089102C005010906A10105AD
:100310000719E029E7150025019508750181029567
:1003200001750881010507190029FF150026FF0046
:100330009506750881000508190129051500250194
:10034000950575019102950175039101C009025B44
:1003500000030100A0FA09040000010301010009E3
:100360002111010001224400070581030800010951
:1003700004010002030000000921110100012222F2
:10038000000705820320000107050303200001097F
:100390000402000103000000092111010001226D87
:1003A000000705840320000112010002000000087C
:1003B000973274490001010203011A035900350004
:1003C000370051006E002F005A00500052004500C7
:1003D00070005600000016034500720067006F00B1
:1003E00064006F007800200045005A0000002803D8
:1003F0005A0053004100200054006500630068006B
:100400006E006F006C006F006700790020004C00E8
:1004100061006200730000000403090411241FBE80
:10042000CFEFDAE0DEBFCDBF11E0A0E0B1E0E2E364
:10043000F9E302C005900D92AA38B107D9F722E07E
:10044000AAE8B1E001C01D92A33AB207E1F797D63E
:100450000C94971CD5CD90E0FC01EA5DFE4F208105
:1004600021111AC0F894FC01E85EFE4F8081E82F4C
:10047000E295EF70F0E031A1282F2F7081E090E03D
:1004800001C0880F2A95EAF7982F9095932391A39E
:1004900092A1892B82A378940895A6E0B0E0E3E5C9
:1004A000F2E00C941C1C26E0FC01DE011196019088
:1004B0000D922A95E1F7FC01258189819A812223F9
:1004C00059F0662349F00E94B918182F682F8981C6
:1004D0009A810E94281903C00E94F418182F69817C
:1004E0007A81812F0E94440D2696E3E00C94381CFB
:1004F0000E94A6192FEF84E39CE021508040904099
:10050000E1F700C000000895A4E3B0E0EAE8F2E0FB
:100510000C941B1C4FA758AB69AB7AAB8BAB9CAB55
:100520009111109208028E01085D1F4F87E0D801DB
:100530001D928A95E9F786E0FE01BF96D8010190E9
:100540000D928A95E1F78CA58823D9F061E0C80166
:10055000A4DF8091C201882389F08DA5811102C09A
:1005600087E001C086E0898388A58A8389A58B837B
:100570008EEF8C83CE0101960E94901161E0C8013C
:100580008CDF87E0FE01B896DE01919601900D9216
:100590008A95E1F7CE0181960E94610F81112CC0EE
:1005A00087E0FE01B196DE01119601900D928A95C9
:1005B000E1F76DA1662301F12091CC0130E0C90182
:1005C0000196877099274091050250E0841795079E
:1005D00061F16D8397E0929FD001939FB00D11243C
:1005E000A353BE4FFE01319601900D929A95E1F70B
:1005F0008093CC010E94FF0E17E08091050290913C
:10060000CC018917F9F0189FC001112483539E4F24
:100610000E94610F8823B1F08091050290E001965D
:100620008770992780930502E8CF0E94A61910923F
:10063000CC0110920502E5ECF1E087E0DF011D92AC
:100640008A95E9F7E496E4E00C94371C982F92958C
:100650009F7019F0892F24E001C020E0982F969513
:10066000969511F02E5F892F982F969509F02F5FA0
:10067000822F089527982F982F98089526982E98BE
:100680002E98089525982D982D980895279A2F9A99
:100690000895269A2E9A0895259A2D9A0895CF9313
:1006A000DF93D82FD3DFC82F5E98ECDFE7DFE2DFE0
:1006B0008C2F90E0FC013197E730F10570F4EA5A95
:1006C000FF4F0C94841CE8DF08C0E6DFE2DF05C0C2
:1006D000E3DF02C0E1DFDDDFD9DF8D2FDF91CF91D6
:1006E0000895A0E0B0E0E7E7F3E00C94161CFC01ED
:1006F0002481222309F4E9C38C0161E0CEDEEC0100
:1007000081309E47C9F5F80185818823A9F1909130
:100710009E0181E0890F8770987F853020F4892BB6
:1007200080939E0102C090939E0180919E018770EC
:10073000FFEF8F9FC001112495958795959587951B
:100740009927909389008093880090938B008093E1
:100750008A0090938D0080938C0040919E0150916F
:100760009F016091A0017091A1018FE090E00E9433
:10077000681C8091C10193DFF8018581882309F409
:1007800006C19E0130572332310508F0DBC084E0FA
:1007900090E00E94511C90937C0280937B02FE01AA
:1007A000E150F047E232F10520F4E35AFF4F0C9498
:1007B000841C80917B028160ACC080917C02886047
:1007C000B4C080917B028260A4C080917B0220C073
:1007D00080917B0288609DC080917C021EC08091C8
:1007E0007C028260A2C080917B02806192C0809175
:1007F0007B0280628EC080917B0280648AC00E94EE
:10080000A61980917B02806884C080917B028860F9
:1008100084607FC080917C028260816086C080910C
:100820007B028E7F76C080917C02877F7EC0809124
:100830007B028D7F6EC080917B0220C080917B0205
:10084000877F67C080917C021EC080917C028D7F73
:100850006CC080917B028F7E5CC080917B028F7D1B
:1008600058C080917B028F7B54C00E94A619809152
:100870007B028F774EC080917B02877F8B7F49C040
:1008800080917C028D7F8E7F50C080917B0282FBA5
:10089000222720F991E0922790FB82F990FB83F9BF
:1008A00038C080917C02982F909591708E7F892B13
:1008B00090FB81F93AC080917B0286FB222720F9C8
:1008C00091E0922790FB86F924C00E94A61980919E
:1008D0007B0287FB222720F991E0922790FB87F982
:1008E00018C061E001C060E08EE090E00E94561CFC
:1008F0001EC080917B0284FB222720F991E0922781
:1009000090FB84F906C080917B02982F909590FB14
:1009100080F980937B020BC080917C0283FB2227AD
:1009200020F991E0922790FB83F980937C026091FB
:100930007B0270917C0284E090E00E94701C0E9417
:10094000A61913C0C6312CE7D20731F580913102C8
:100950008A7A91E009F490E090938E018111B3C2FC
:1009600089E20E9429180E947D0E809106028770FC
:1009700009F4ABC2F8018581882309F4A6C28091ED
:100980007C0282FFA2C282E00E94D20E9EC2C631C9
:10099000FCE7DF0709F48DC29E01205E324520325C
:1009A0003105A8F4811115C0CF7181E090E09C0160
:1009B00002C0220F331FCA95E2F7E901622F83E0DC
:1009C00090E00E94561C8C2F0E947919CECF88236C
:1009D000A9F1C3303CE7D307D9F040F4C1159CE737
:1009E000D90789F0C130DC47C9F028C0CB35FCE716
:1009F000DF0709F1CC352CE7D207A9F0CA35DC476F
:100A0000E9F481E019C081E073DD0E946517ADCF84
:100A10006FEF7FEF80E090E00E94701C80E068DD67
:100A20000E945A17A2CF80917C0282FB882780F90E
:100A300091E0892701C080E00E94E90EF8018581DC
:100A4000C081D181882349F0CE010E94B918F82EC7
:100A5000682FCE010E94281904C0CE010E94F4180C
:100A6000F82EBE018F2D0E94440D0E94610DF82EBC
:100A7000C92FD82EF801D581E680E2949FE0E922C3
:100A800080910602877001F1DD23F1F08C2F807FC9
:100A9000803469F080E28F0D8830B0F08C2F807E3A
:100AA000803229F4F1E0FF1578F4EE2069F08091AE
:100AB0007C0282FF09C082E00E94D20E8091060271
:100AC0008770CC24C3948111C12CBC2EB2948FE0CA
:100AD000B8228B2D90E08C30910508F0C9C1FC0143
:100AE000E158FF4F0C94841C8C2F807FCF7088239B
:100AF00011F0C295C07FDD23B9F0CC2309F4A6C163
:100B000080E28F0D883010F0D11006C09091310234
:100B1000C92BC093310205C090910802C92BC09324
:100B200008020E947D0E92C18F2D0E94D619CC23FF
:100B300009F49EC180E28F0D883088F1DD2079F1C3
:100B4000C09590910802C923C09308022BC08C2F36
:100B5000807FCF70803211F0C295C07F8F2DDD2055
:100B600029F021E0D21609F44CC055C080917C02D6
:100B700082FD1BC0DD2369F0CC2339F09091310256
:100B8000C92BC09331020E947D0E80E00E94FB19A8
:100B90006FC180E00E94D619CC2309F469C18C2F63
:100BA0000E94760E0E947D0E63C1DD2381F0EE204F
:100BB000B1F131E0E3125CC1909107028C2F8923DF
:100BC000C81709F455C1C92BC093070251C1E110E0
:100BD0004FC18C2F0E94C519809107029C2F98232A
:100BE00029F09C2F909589238093070220918F01F3
:100BF0008C2F822309F43CC1C0952C2320938F01B4
:100C000037C1DD2329F081E08E1508F431C107C01A
:100C1000E1102EC115C0DD2331F0E11017C18C2F7A
:100C20000E94CC1925C1EE2059F0893309F01DC16D
:100C30009FEFE7EEF3E09150E040F040E1F713C1A1
:100C40008C2F0E94C51914C18C2F869586958370B0
:100C500019F0813061F00CC1DD2321F08F2D9C2F24
:100C6000937002C080E090E00E94851808C1DD23E7
:100C700021F08F2D9C2F937002C080E090E00E94A5
:100C80006018FDC08C2F8370A9F5D111F5C04F2DD0
:100C9000429546954770440F440F8F2D8F7090E01A
:100CA0009C01042E01C0220F0A94EAF7F4FE08C04A
:100CB0008FE090E001C0880F4A95EAF7809501C067
:100CC00080E0C695C695C370C23069F088F49091F3
:100CD000C001C13019F0822B892302C0922B892BCD
:100CE0000E947919C9C0822B9091C0018927F8CF41
:100CF000822BF6CFDD2319F08C2F817001C08695F1
:100D0000882309F4B9C04F2D429546954770440F8A
:100D1000440F8F2D8F7090E09C01042E01C0220F94
:100D20000A94EAF7F4FE08C08FE090E001C0880F53
:100D30004A95EAF7809501C080E0C695C695C370D4
:100D4000C23059F078F49091C101C13019F0822B72
:100D5000892309C0922B892B06C0822B9091C10157
:100D6000892701C0822B0E945D1986C0CF70DD23C8
:100D700039F08C2F0E946F198F2D0E94CC197CC0E6
:100D80008F2D0E94C5198C2F0E94641975C08F2D5C
:100D900022EFD21669F12D1538F030EFD31659F045
:100DA00091EFD91601F14EC0E3EFDE1641F1F4EFF9
:100DB000DF16A9F047C0DD2369F0E11059C0CF71FB
:100DC00081E090E001C0880FCA95EAF79091C101D7
:100DD00089271FC021E02E1508F44AC0F0CF80916A
:100DE0007C0282FD19C0DD2329F08C2F8F711FC07A
:100DF000DD23D9F38C2F8F710E94641939C0DD2354
:100E000039F0CF7181E001C0880FCA95EAF701C0BF
:100E100080E00E945D192CC0DD2361F08C2F8F7162
:100E200098E0899F900111242360209306020E947C
:100E30006F191EC081E0B6D7E1E0EE15C8F482E07C
:100E4000B1D716C0DD2321F0EE2079F28F2D9ECE92
:100E5000EE2081F2893349F4FFEF27EE33E0F150C1
:100E600020403040E1F700C000008F2D0E94D619CD
:100E700088EF8B0D843018F40E94AA1816C0CC207D
:100E8000A1F08091060280FD10C0F80115828695C0
:100E9000869586950E946F19C80123DC8091060211
:100EA0008695869586950E94641960E0C801F5DAFA
:100EB0000CC080918E01811104C089E20E94FB1751
:100EC00052CD85E3FBCF85E34CCDCDB7DEB7E9E06E
:100ED0000C94321CA0E2B0E0E0E7F7E00C941C1C9C
:100EE000182F8091C2018823D9F08091C001812BF5
:100EF000ADDB90918D01891799F080938D018FE37F
:100F00009CE90197F1F700C0000085E0898380919A
:100F10008D018A838EEF8B83CE0101960E94901102
:100F2000812FA096E3E00C94381CA0E2B0E0EBE93E
:100F3000F7E00C941D1C9FEF99838A83CE010196E4
:100F40000E949011A096E2E00C94391CA1E0B0E060
:100F5000ECEAF7E00C941B1C8730F8F420910C01AC
:100F600030910D01232BD1F521E030E0A90102C021
:100F7000440F551F8A95E2F7CA01809589830AE0DC
:100F800010E0AE014F5F5F4F62E180E40E94271BDB
:100F900090930D0180930C0121C090E0FC01EA5D6B
:100FA000FE4F208121111AC0F894FC01E85EFE4F2B
:100FB0008081E82FE295EF70F0E031A1282F2F70AB
:100FC00081E090E001C0880F2A95EAF7932F982BD3
:100FD00091A392A18095892382A378942196E4E03D
:100FE0000C94371C0F931F93CF930DE211E0C7E0D1
:100FF000F80181918F01811102C08C2F2CDACF5F13
:10100000CE30B1F7CF911F910F910895A1E0B0E0DC
:10101000ECE0F8E00C941B1C082F8730C8F480919A
:101020000C0190910D01892BD9F519820AE010E08D
:1010300021E030E0AE014F5F5F4F63E180E40E944A
:101040006D1B90930D0180930C018981809529C0BF
:101050007DDFA2E1B1E020E030E010E051E04D9111
:10106000E42FE295EF70F0E080A190E04F7002C0B5
:10107000959587954A95E2F780FD07C0852F022E4A
:1010800001C0880F0A94EAF701C080E0182B2F5F97
:101090003F4F2630310519F7802FDDD9812F01C050
:1010A00080E02196E4E00C94371CCF93DF93A2E11B
:1010B000B1E048E151E061E070E0F8948D91E82FF3
:1010C000E295EF70F0E021A18F70EB0102C0CC0F30
:1010D000DD1F8A95E2F7CE019C2F9095922391A374
:1010E00092A1892B82A378944A175B0731F7DF918D
:1010F000CF910895A2E0B0E0E0E8F8E00C941B1C6A
:1011000080E290E090930D0180930C0180918C011E
:1011100081110EC00E94B01A81E080938C012FEFE4
:1011200083ED90E3215080409040E1F700C0000043
:1011300019828FE38A830AE010E022E030E0AE01FA
:101140004F5F5F4F60E080E40E94271B90930D018A
:1011500080930C01892B69F422E030E0AE014F5FEF
:101160005F4F6CE080E40E94271B90930D018093F9
:101170000C0180910C012296E4E00C94371CA6E649
:10118000B0E0E5ECF8E00C940E1C85B7806885BFF4
:1011900085B7806885BF84B7877F84BF0FB6F89412
:1011A000A895809160008861809360001092600033
:1011B0000FBE90E080E80FB6F894809361009093A2
:1011C00061000FBE81E08093110181E19CE090936A
:1011D0008B0180938A010E94AE140E94CD148091ED
:1011E000E20084608093E200789480914302882337
:1011F000A1F01091E9001F709091EC00892F81708F
:1012000090FD80E8182B1092E9008091E80083FDA2
:101210000E9495111F701093E90082E084BD93E055
:1012200095BD9AEF97BD80936E0064DF90E0909338
:101230000D0180930C01D6DE38DFE0E9F1E0A2EA8F
:10124000B1E011921D9221E0EE39F207D1F780E072
:1012500090E00E94511C833E9E4FB9F163EE7EEFF9
:1012600080E090E00E94701C60E082E090E00E94CC
:10127000561C81E08093C00161E083E090E00E9411
:10128000561C60E074E184E090E00E94701C1092B3
:101290009E0110929F011092A0011092A10184E082
:1012A00080939E0140919E0150919F016091A00109
:1012B0007091A1018FE090E00E94681C40E050E036
:1012C000BA0183E190E00E94681C82E090E00E94F5
:1012D000441C8093B00184E090E00E94511C9093E4
:1012E0007C0280937B0270D7FFEF23EF81E0F15007
:1012F00020408040E1F700C0000066D78091A20145
:1013000080FF08C06FEF7FEF80E090E00E94701CCC
:101310000E94651783E090E00E94441C0E947919A6
:101320008091C101BCD989EA8093800089E08093D3
:10133000810024982C983F98479A54985C9A559825
:101340005D9A6E98769A569A8FE090E00E944C1CB7
:1013500060939E0170939F018093A0019093A101DF
:1013600067701FEF169FB0011124759567957595ED
:1013700067957727709389006093880070938B003E
:1013800060938A0070938D0060938C005E987AD988
:1013900075D970D98FEF90E0909389008093880081
:1013A00090938B0080938A0090938D0080938C00A3
:1013B00073D99FEFE0E7F2E09150E040F040E1F7B1
:1013C00000C0000066D92FEF80E792E021508040F6
:1013D0009040E1F700C0000059D9EFEFF0E722E0BC
:1013E000E150F0402040E1F700C000004BD98FEF02
:1013F00090E7E2E081509040E040E1F700C000005B
:101400003DD9FFEF20E782E0F15020408040E1F736
:1014100000C000002FD980919E018770189FC001E5
:10142000112495958795959587959927909389008F
:101430008093880090938B0080938A0090938D0016
:1014400080938C005E981ED919D914D980E091E060
:10145000909378028093770278E1C72ED12CE0EB4D
:10146000EE2EE1E0FE2E01E077247394809143029A
:10147000853009F04BC010E430E1B32E42E1A42ED8
:1014800080914302853009F03DC080914302843051
:1014900009F110927D020FB6F894A895C0926000F1
:1014A0000FBE1093600083B7817F846083BF83B7D2
:1014B000816083BF7894889583B78E7F83BF0FB692
:1014C000F894A895809160008861809360001092E4
:1014D00060000FBE0FDE90E090930D0180930C0131
:1014E00081DDE3DDE2EAF1E01192EE16FF06E1F7BD
:1014F0006BD6E2EAF1E08191811178C1EE16FF0628
:10150000D1F7BECF0E94A6190E94AA185DD621EB82
:10151000A22E21E0B22EA2EAB1E0F50191918D91C7
:10152000892791E0EF3BF90719F08823B9F304C04C
:10153000811102C0D3D653C092EA892E91E0992E30
:1015400010E0F40131904F01F50140804324A9F1EE
:10155000612C55245394842D852141F1A2966FAEC0
:10156000A297A3961FAFA3970E94BD17A5969FAF02
:101570008EAFA597A6960FAFA69791E0832D8521F4
:1015800009F490E0A7969FAFA797A2964FADA297B8
:10159000A3965FADA397A4966FADA497A5967FADD4
:1015A000A597A6968FADA6970E9484026394550CCA
:1015B000F6E06F12D0CFF50130821F5FFFEFAF1A58
:1015C000BF0A1E3009F0BDCF8FB7F89440917E025C
:1015D00050917F0260918002709181028FBF0E94C2
:1015E000AA189091BF01891769F08093BF018FB746
:1015F000F89440917E0250917F0260918002709138
:1016000081028FBF80914302843009F02FCF83E0A5
:101610008093E9008091E80082FF28CF8091E80064
:1016200085FF24C00E94081681111EC080E2A82EEA
:10163000B12C4E0121E4820E911C09C08091F10071
:10164000F40181934F01F1E0AF1AB10869F0809184
:10165000E80085FDF3CF8091E8008B778093E80068
:101660000E940816882399F391E001C090E08091D0
:10167000E8008B778093E800992309F4F7CE22964F
:101680008FAD2297863009F494C020F5823009F49A
:10169000EDCED0F4882399F1813009F0A4C0809375
:1016A000C20184E089A31EEF1AA3CE01819638D629
:1016B0009091C1018091C001892B0E94260395E081
:1016C00099838A831B838BC0843031F1853009F480
:1016D00070C089C0893009F46CC030F48730C9F11A
:1016E000883009F466C07FC08A3009F464C08E3F38
:1016F00009F079C0898394E09A838B8370C0198242
:101700008DE0E4E3F1E0DE01129601900D928A95FE
:10171000E1F78EEF8E8763C08091C201882309F4C0
:10172000A5CE23968FAD2397811106C024968FAD49
:1017300024970E9464199ACE81E090E024960FAC21
:10174000249702C0880F991F0A94E2F70E945D193E
:101750008DCE7092C40123968FAD23978230E1F035
:1017600030F5882319F0813061F021C024968FADC7
:101770002497882319F00E944C0378CE0E944203DC
:1017800075CE24968FAD2497882319F00E944903C3
:101790006DCE0E943E036ACE24968FAD2497882397
:1017A00019F00E94460362CE0E943A035FCE85E0A4
:1017B0001BC084E019C023968FAD239711E08111DF
:1017C00001C010E01093C401811106C00E944203C1
:1017D0000E943E030E943A038BE089831A83CE0164
:1017E00001969ED543CE8FEFA0DB40CE8091420282
:1017F000882309F445CEB9BCA9BC09B400FEFDCFCD
:101800008091D8008F7D8093D8008091E000826025
:101810008093E0008091E00081FDFCCF0E94A6193A
:101820002FCE80E0089590917B0292FF10C041E09E
:10183000282F2471243009F040E031E0282F28714E
:10184000283009F030E0431711F02CE0822793FF95
:1018500010C041E0282F2471243109F040E031E02C
:10186000282F2871283109F030E0431711F02CE0BF
:10187000822730917C0230FF10C051E0282F217167
:10188000213009F050E041E0282F2871283009F07C
:1018900040E0541711F029E0822731FF10C041E0E9
:1018A000282F2171213109F040E031E0282F2871E3
:1018B000283109F030E0431711F029E0822794FD28
:1018C000877E08958238910569F1B0F481339105DE
:1018D00009F475C048F48932910509F467C08A3269
:1018E000910509F471C008958533910509F459C033
:1018F00089339105B9F00895833E910589F138F453
:10190000803E9105D1F0823E910529F10895863EF1
:101910009105C9F1873E9105D9F1843E910509F001
:101920006CC027C020917B0220FD57C021FD55C00F
:1019300020917C0223FD5BC0089580917B0280FD95
:1019400048C080917C0280FF48C080917B0284FD6A
:1019500046C083EE51C080917B0282FF3CC0F5CF30
:1019600080917B0282FD37C080917C0280FD35C072
:10197000ECCF80917C0281FF36C080917B0284FD98
:101980002EC087EE39C080917B0283FF2AC0F5CF3D
:1019900080917B0283FD25C080917C0281FD23C064
:1019A000ECCF80917B0285FD22C01FC080917B021D
:1019B00085FD1BC080917C0283FF19C00AC0809105
:1019C0007B0286FD16C017C080917B0286FD13C086
:1019D00010C089E311C082EE0FC080EE0DC080E020
:1019E0000BC086EE09C084EE07C085E305C089E21E
:1019F00003C08AE201C081E390E008959091310232
:101A000080910802892B909107029923E1F0892B9C
:101A100090911001913041F490917B0297FF04C0A6
:101A20009EE127E532E003C096E02FE432E0F901C1
:101A300020E0915028F031913323D9F32F5FF9CF73
:101A40002111109207020895209105029091CC0176
:101A500057E02917A9F030E0529FF001539FF00D95
:101A60001124E353FE4F7181761306C07081781301
:101A700003C07581741306C02F5F3F4F2770E9CFF5
:101A800080E0089581E008957E30B0F46630A0F4DF
:101A90008230A0F494E5899FF001112486E0789FBC
:101AA000E00DF11D1124E60FF11DEE0FFF1FE65DA5
:101AB000FE4F85919491089580E001C081E090E00F
:101AC00008951F93CF93DF93FDDEEC01C11580E5F0
:101AD000D807E8F5C11590E4D90708F0A6C0C03EC4
:101AE000D10530F5CD3CD10508F094C0C83AD105F8
:101AF00078F4C53AD10508F083C0C130D10509F4A6
:101B00007CC008F4EBC0C430D10508F0EAC0E6C0E0
:101B1000C33CD10508F0E2C0C85AD0E0CC0FDD1FAD
:101B2000CC5BDE4F0990D881C02DCE019464DAC021
:101B3000C11580E2D80708F0C6C0C11591E0D907E9
:101B400008F06BC0C83ED10508F4CBC0C7C0C03692
:101B500082E5D80728F5C03492E5D90708F076C0A9
:101B6000C03282E5D80708F069C0C11592E5D907EF
:101B700008F47EC04C2F4695469580E2489FA00110
:101B80001124C37021E030E0C90102C0880F991F01
:101B9000CA95E2F7EA01C82BD92BCE019D68A2C0F5
:101BA000C03A82E5D807B8F48C2F8F71C03892E51F
:101BB000D90708F077C08695869590E2899F9001B5
:101BC0001124C37081E090E002C0880F991FCA956C
:101BD000E2F79A6864C0C03C82E5D80708F469C09F
:101BE000C03E92E5D90708F079C0CF71DD27DC2F20
:101BF000CC27CE01806F906A75C081E090E072C002
:101C0000C55AD0E0CF5BDE4F8881C82FD0E0CE012F
:101C1000906468C0CE01906565C08D2F04DE182FDA
:101C2000CE0199274FDE1F7157C0CE0199274ADE9A
:101C3000CC27DF70D06A8C2B9D2B54C0CF71D0E0A5
:101C4000DC2FCC27CE01816F906A4CC08C2F8F7116
:101C50008695869590E2899F90011124C37081E05A
:101C600090E002C0880F991FCA95E2F79C6817C0E0
:101C70008C2F8F71D8DD95E0D695C7959A95E1F7B1
:101C8000CF70D0E0DC2FCC27282F30E084FF05C0B8
:101C900084E0220F331F8A95E1F7D069CE01822BB1
:101CA000932B20C090E0D82FCC27CE01846F906A70
:101CB00019C08C2F8F71B7DD8F7190E0D82FCC2792
:101CC000CE0190620FC08D2F8F71ADDD182FCE0128
:101CD0009927F8DD1F719062912B04C080E090E09D
:101CE00001C0CE01DF91CF911F9108958095909111
:101CF000310289238093310208958091100181304F
:101D000061F580917B0287FF28C078DE80935602C0
:101D100040E250E069E072E085E592E00E948A1CB2
:101D2000892B09F43EC080E2E5E5F2E0A9E0B2E0EB
:101D300001900D928A95E1F7E0917702F091780297
:101D4000309779F10480F581E02D309751F186E0EC
:101D50008093550285E592E023C050DE80934D02CA
:101D600048E050E069E272E08DE492E00E948A1C53
:101D7000892BB9F088E0EDE4F2E0A9E2B2E001904D
:101D80000D928A95E1F7E0917702F0917802309711
:101D900041F00280F381E02D309719F08DE492E05C
:101DA00009950895909106028095892380930602F3
:101DB000282F277069F4981759F090917C0292FFB0
:101DC00007C08695869586950E9464191092060232
:101DD000089590917C0292FB222720F9281771F038
:101DE00080FB92F990937C0260917B0270917C025F
:101DF00084E090E00E94701C82E0D4CF089580912E
:101E000005029091CC01891719F08F5F8770FBCF85
:101E10000895CF93DF938091CB0182958F7009F065
:101E20004DC08091CA01882309F448C08091050201
:101E30004091CC015091C6016091C501C091C7018C
:101E4000D091C80177E08417C9F190E0789FF00144
:101E5000799FF00D1124DF01A353BE4F14962C91EE
:101E60001497222341F111962C911197251323C029
:101E70002C91261320C015962C91159721111BC06B
:101E800012962D913C9113972C1B3D0B283C31054C
:101E900090F48091CB018F7080618093CB01ED52E3
:101EA000FE4F80818F708061808385EC91E00E947D
:101EB0007103A5DF03C001968770C5CFDF91CF9175
:101EC0000895A4E1B0E0E7E6FFE00C94131C8C0158
:101ED00086E0F801DE011F9601900D928A95E1F7E8
:101EE000F8018481E58095EC892E91E0992E9091FE
:101EF000C90191111FC0882309F45FC1EE2009F4C4
:101F000041C0C8010E948419F82E8823D9F187E0C6
:101F1000F801D40101900D928A95E1F78091C901F1
:101F2000813031F48091C5019091C6010E94E8187A
:101F300070DF45C1F801D080C180A280B380F090ED
:101F4000CA012091C7013091C801FF2009F4E4C003
:101F5000A501421B530B483C510508F09AC0882349
:101F600009F42DC18091CB01282F207F9091C601CB
:101F7000222361F09C1509F45EC0C8010E948419F7
:101F8000811161C0C8010E94710317C19C1113C067
:101F90009091C5019D110FC0E1100DC08F7080613F
:101FA0008093CB0185EC91E00E9471038091CB017D
:101FB000F801868300C1E11038C040E06C2D8D2D02
:101FC00043DD40E06C2D8D2D3FDDE82E8111F3C007
:101FD000DF86C88A8F8598890E94E818292F229564
:101FE0002F70243020F49F70223028F009C02A502E
:101FF000223080F014C0992349F0811107C013C02A
:10200000992321F0F8019681907F69F0805E8830F5
:1020100030F409C0803F38F0815F833020F0C80180
:102020000E947103EF2CFE2CCAC08091CB0181600D
:102030008093CB01C0C09091C5019D119ECFE1104E
:102040009CCFF80197C0EE2009F49CCF2091CB01E2
:10205000822F82958F7090E002978CF08091C5015D
:102060009091C60199878887BB86AA868091C9010D
:102070008C871D862E87CE0108960E94710387E00B
:10208000F801A5ECB1E001900D928A95E1F7C1DE6F
:1020900094C09091CB01292F207F51F485EC91E0E1
:1020A0000E94710387E0F40111928A95E9F783C0D9
:1020B000882309F484C08091C6018C110CC08091E2
:1020C000C5018D1108C0E11006C0F8019683C80152
:1020D0000E9471036AC0C8010E948419882309F410
:1020E00051CFEE2009F44ECF2091CB01822F829563
:1020F0008F7090E002971CF28091C5019091C6010B
:102100009A838983BC82AB828091C9018D831E82B0
:102110002F83CE010196B1CFA21AB30AF8ECAF1605
:10212000B10408F042C0882309F447C0FE2CEE2019
:1021300009F428CF8091C6018C1129C08091C50176
:102140008D1125C09091CB0190FD18C0892F8295EB
:102150008F70282F30E02115310581F0F80196832A
:102160002F30310541F08F5F982F9295907F8681B7
:102170008F70892B8683C8010E94710387E0F80164
:10218000A5ECB1E001900D928A95E1F718C0C80165
:102190000E948419811173CF8091CB01816080935B
:1021A000CB01C8010E9471030AC087E0F4011192BB
:1021B0008A95E9F704C0F12C02C0FF24F3948F2D17
:1021C0006496ECE00C942F1CEF92FF920F931F93F8
:1021D000CF93DF9380910C0190910D01892BD1F069
:1021E000809134028F5F80933402811113C00E946A
:1021F0007A0890E090930D0180930C01892B51F4A3
:102200002FEF83EC99E0215080409040E1F700C02F
:10221000000050D600E911E0C0E0D0E087E0E82EF1
:10222000ED0E8D2F0E94A6078E2D0E94A6078D2FE2
:102230000E9406088F73F8019081891721F080832E
:10224000FF24F39401C0F12C8E2D0E9406088F7399
:10225000F8019781891719F0878381E001C080E038
:10226000F82ACF290E94F207DF5F0F5F1F4FD73098
:10227000A9F6CC2351F081E0809337027ED690936B
:10228000360280933502C0E023C080913702882354
:10229000F9F000913502109136026FD6801B910B38
:1022A0004497B0F04EE050E060E971E082EA91E0DE
:1022B0000E948A1C892B51F08EE0E0E9F1E0A2EA4D
:1022C000B1E001900D928A95E1F7C1E010923702DA
:1022D0008C2FCDB7DEB7E6E00C94351CA6E0B0E05D
:1022E000E4E7F1E10C941B1C48D68C01809132028A
:1022F000909133020817190779F019821A823DD696
:10230000682F49815A81792F80E090E00E948402F1
:1023100010933302009332022696E4E00C94371CAB
:1023200040E250E0BC0182E05CC5AAE2B0E0EBE92B
:10233000F1E10C941C1CE5E4F2E08DE492E02091C4
:10234000F10021938E179F07D1F7809146028330C9
:1023500009F462C030F4813071F0823009F49EC01B
:10236000B4C08A3009F48BC08B3009F46DC0893059
:1023700009F0ABC01FC080914502813A09F0A5C0A9
:102380008091E800877F8093E800809149029091D6
:102390004A02892B21F468E089E392E003C060E0FF
:1023A00080E090E070E0BFD48091E8008B7780936C
:1023B000E8008BC080914502813209F086C080918F
:1023C000490290914A02009719F0029709F07DC0E6
:1023D0008091E800877F8093E8008091E80082FD8B
:1023E00005C0809143028111F8CF6FC02091F300A6
:1023F0008091F20090E0922B029731F48091F100ED
:10240000813011F0863021F48091F10080930F012A
:102410008091E8008B7756C080914502813A09F09F
:1024200054C08091490290914A02892B09F04DC015
:102430008091E800877F8093E8008091E80080FF2A
:10244000FCCF8091100139C080914502813209F0A2
:102450003CC08091490290914A02892BB1F580914C
:10246000E800877F8093E8000AD481E090914702DA
:10247000911101C080E08093100168D726C080913F
:102480004502813211F58091E800877F8093E80052
:10249000F6D38091480280930E0117C080914502C7
:1024A000813A99F48091E800877F8093E8008091D9
:1024B000E80080FFFCCF80910E018093F1008091B5
:1024C000E8008E778093E800DAD38091E80083FFFC
:1024D000EBC18091450290914602492F50E04A306D
:1024E000510508F0E1C1FA01E557FF4F0C94841C37
:1024F000803821F0823809F0D7C108C080914102AC
:1025000090914202992389F082600FC08091490224
:102510008F70873008F0C8C18093E9008091EB008C
:1025200085FB882780F91092E9009091E800977F59
:102530009093E8008093F1001092F1007AC1282F67
:102540002D7F09F0B1C1882319F0823061F0ACC150
:1025500080914702813009F0A7C1933009F080E0F3
:10256000809342022EC08091470281112AC080913F
:1025700049028F702FEF280F263008F095C1809305
:10258000E9002091EB0020FF1CC0933021F48091E2
:10259000EB00806214C09091EB0090619093EB008F
:1025A00021E030E0A90102C0440F551F8A95E2F7EF
:1025B0004093EA001092EA008091EB0088608093DB
:1025C000EB001092E9008091E800877F8093E8009B
:1025D00056D36AC1811168C1109147021F7780915B
:1025E000E3008078812B8093E3008091E800877F6F
:1025F0008093E80044D38091E80080FFFCCF809175
:10260000E30080688093E300111102C082E001C002
:1026100083E08093430248C18058823008F044C16F
:1026200020914702309148022C3D53E0350771F567
:1026300083E08A838AE289834FB7F894DE01139698
:1026400020E03EE051E2E32FF0E050935700E491A8
:1026500020FF03C0E295EF703F5FEF708E2F90E098
:10266000EA3010F0C79601C0C0968D939D932F5FFE
:10267000243149F74FBF8091E800877F8093E800BD
:102680006AE270E0CE0101964ED3C1C0809149024A
:1026900090914A02432F552743305105B1F068F419
:1026A0004130510509F40FC14230510509F0FCC019
:1026B0008BE590E0EDE4F3E057C04132510589F13C
:1026C0004232510509F43CC0EFC0C901992781305D
:1026D0009105B9F070F082309105D9F0039709F0B7
:1026E000E3C0EAEBF3E0E4918E2F90E0EAEBF3E055
:1026F00038C0E8E1F4E0E4918E2F90E0E8E1F4E006
:1027000030C0EEEEF3E0E4918E2F90E0EEEEF3E0D9
:1027100028C0E6EDF3E0E4918E2F90E0E6EDF3E0E3
:1027200020C08330910508F0BFC0880F991FFC01BD
:10273000ED57FE4F0190F081E02D89E090E014C04C
:102740008330910508F0B0C0FC01EE0FFF1FE35885
:10275000FE4F0190F081E02DDC01A658BE4F8C9118
:1027600090E0009709F4A0C02091E800277F209313
:10277000E80020914B0230914C028217930708F435
:102780009C0140E02115310589F1809143028823A5
:1027900009F43DC08530D9F18091E80083FD37C050
:1027A0008091E80082FD2FC08091E80080FFEACF91
:1027B0004091F3008091F20090E0942B21153105B7
:1027C00059F08830910540F444914093F1003196DE
:1027D000215031090196F2CF41E0089709F040E01D
:1027E0008091E8008E778093E800CCCF4111CDCF67
:1027F0000AC080914302882351F0853041F08091D6
:10280000E80083FD04C08091E80082FFF2CF809150
:10281000E8008B778093E80047C0803809F044C017
:102820008091E800877F8093E80080914402809344
:10283000F1008091E8008E77C9CE811135C080917A
:102840004702909148029927029774F58091E80019
:10285000877F8093E80010914702109344020FD2C3
:10286000111106C08091E30087FD02C081E001C024
:1028700084E08093430242E061EC81E01FD242E2B7
:1028800061EC84E01BD242E261EC82E017D242E2CA
:1028900060EC83E013D280914302843011F081E038
:1028A00001C082E0809311018091E80083FF10C095
:1028B0008091E800877F8093E8008091EB00806240
:1028C0008093EB0005C082E190E0E8EAF3E04CCFB2
:1028D000AA96E3E0CDC71F920F920FB60F92112474
:1028E0002F933F934F935F936F937F938F939F9318
:1028F000AF93BF93CF93DF93EF93FF93C091E90022
:10290000CF708091EC00D82FD17080FDD0E810926C
:10291000E9008091F000877F8093F000789405DDD6
:102920001092E9008091F00088608093F000CD2B38
:10293000CF70C093E900FF91EF91DF91CF91BF91EC
:10294000AF919F918F917F916F915F914F913F9147
:102950002F910F900FBE0F901F901895E8EDF0E0AB
:1029600080818E7F80831092E2001092DA001092B4
:10297000E100A0EEB0E08C9181608C9380818F7734
:10298000808319BCA7EDB0E08C918E7F8C93808101
:102990008F7E8083109238020895A0E0B0E0E2EDCF
:1029A000F4E145C7C8EDD0E088818F7E8883E7EDEC
:1029B000F0E080818160808384E082BF81E0809349
:1029C000380288818E7F888302EE10E0F801108241
:1029D0001092DA0081EEC82ED12CF6011082888187
:1029E0008F77888388818068888388818F7D8883BA
:1029F00019BC1092430210924402109242021092AB
:102A0000410290EEE92EF12CF70180818B7F8083CB
:102A100088818160888342E060E080E04FD1F601E8
:102A200080818E7F8083F8018081816080838081B6
:102A300088608083F70180818E7F808388818061B8
:102A40008883CDB7DEB7E8E00EC71F920F920FB6AE
:102A50000F9211242F933F934F935F936F937F9324
:102A60008F939F93AF93BF93EF93FF938091E10078
:102A700082FF09C08091E20082FF05C08091E100E1
:102A80008B7F8093E1008091DA0080FF28C08091E5
:102A9000D80080FF24C08091DA008E7F8093DA0016
:102AA0008091D90080FF16C080E189BD82E189BD97
:102AB00009B400FEFDCF81E080934302809138028B
:102AC00081110DC04BDF69DF8091E200846080934B
:102AD000E20005C019BC10924302109238028091A6
:102AE000E10080FF1AC08091E20080FF16C0809153
:102AF000E2008E7F8093E2008091E200806180930B
:102B0000E2008091D80080628093D80019BC85E0F3
:102B10008093430283E0809311018091E10084FF60
:102B200037C08091E20084FF33C080E189BD82E13B
:102B300089BD09B400FEFDCF8091D8008F7D8093C0
:102B4000D8008091E1008F7E8093E1008091E200C7
:102B50008F7E8093E2008091E20081608093E200AA
:102B600080914402882311F084E007C08091E30043
:102B700087FD02C081E001C083E080934302809121
:102B80004302843011F081E001C082E080931101A2
:102B90008091E10083FF2BC08091E20083FF27C07A
:102BA0008091E100877F8093E10082E0809343027F
:102BB000109244028091E1008E7F8093E100809129
:102BC000E2008E7F8093E2008091E200806180933A
:102BD000E20042E060E080E071D08091F000886027
:102BE0008093F00081E08093110180931001FF91A8
:102BF000EF91BF91AF919F918F917F916F915F9175
:102C00004F913F912F910F900FBE0F901F901895ED
:102C10002091E4003091E50095E64091EC00842F8E
:102C2000817040FF23C08091E80080FD1DC080912D
:102C30004302882399F0853099F08091EB0085FD5F
:102C400011C04091E4005091E5002417350729F3A5
:102C5000915011F09A01E1CF84E0089582E0089547
:102C600083E0089581E0089580E008954091E800B0
:102C700042FFDDCF0895089580910F01089580915E
:102C8000450287FF11C08091E80082FD05C0809158
:102C900043028111F8CF11C08091E8008B770BC0FF
:102CA00080914302882349F08091E80080FFF8CFAB
:102CB0008091E8008E778093E8000895982F9730F0
:102CC00068F59093E900981739F07091EC00209125
:102CD000ED005091F00003C0242F762F50E021FD2D
:102CE00002C09F5FECCF3091EB003E7F3093EB0052
:102CF0003091ED003D7F3093ED003091EB0031607D
:102D00003093EB007093EC002093ED005093F000B3
:102D10002091EE0027FDE5CF80E008958F7080932D
:102D2000E90081E0089520914B0230914C02261772
:102D3000370748F06115710539F42091E8002E77C6
:102D40002093E80001C0B901FC0120E06115710584
:102D500079F1809143028823F1F18530F1F180917E
:102D6000E80083FD3CC08091E80082FD2EC0809188
:102D7000E80080FFEBCF2091F3008091F20090E01B
:102D8000922B6115710551F08830910538F421912D
:102D90002093F100615071090196F3CF21E008976B
:102DA00009F020E08091E8008E778093E800CECF94
:102DB0002111CFCF0AC080914302882361F0853072
:102DC00061F08091E80083FD0AC08091E80082FFF5
:102DD000F2CF80E0089582E0089583E0089581E0D5
:102DE00008950F931F93CF93DF938B01EA01909186
:102DF00043029430A1F58F708093E9008FEF90919A
:102E0000E800815095FD06C095ED9A95F1F7000018
:102E10008111F5CF8091E80085FF21C0F9DE811195
:102E200015C0209789F08091E80085FD06C080914B
:102E3000E8008E778093E800F1CFF80181918F014F
:102E40008093F1002197EDCF90E001C0982F809101
:102E5000E8008E778093E80081E0911101C080E066
:102E6000DF91CF911F910F91089543E050E0BC0195
:102E700084E0B7CF40E250E0BC0184E0B2CFCF9312
:102E8000DF93EC0148E050E0BC0181E0AADF88E07C
:102E9000FE01A9E3B2E001900D928A95E1F7DF917E
:102EA000CF910895603229F4BC0140E250E082E005
:102EB00098CF08959AE088E10FB6F894A89580938A
:102EC00060000FBE90936000FFCFF89481E0809384
:102ED000E00080E28093D800E9ECF0E010828FE11E
:102EE0009EE40197F1F700C000001DBA109268003F
:102EF0001CBC10BE1FBA10927A0010926E00109285
:102F00006F0010927100109272001082ECEBF0E0F2
:102F1000108214B817B81AB81DB810BA108215B8B4
:102F200018B81BB81EB811BA0C94003F08957894D5
:102F30001F920F920FB60F9211248F939F93AF930E
:102F4000BF9380917E0290917F02A0918002B09108
:102F500081020196A11DB11D80937E0290937F0294
:102F6000A0938002B0938102BF91AF919F918F9106
:102F70000F900FBE0F901F9018952FB7F894809167
:102F80007E0290917F02A0918002B09181022FBFBA
:102F900008951F920F920FB60F9211248F939F9353
:102FA000AF93BF9380917D02811113C080917E0207
:102FB00090917F02A0918002B09181024196A11D63
:102FC000B11D80937E0290937F02A0938002B09304
:102FD0008102BF91AF919F918F910F900FBE0F9083
:102FE0001F901895CF93DF93EC01C7DF8C1B9D0BCF
:102FF000DF91CF91089590911001913021F490913B
:103000007B0297FD03C0EDE4F2E01DC0E82FE695DA
:10301000E695E695EE31E0F4F0E0EB5AFD4F87706F
:1030200021E030E0A90102C0440F551F8A95E2F764
:10303000CA0180959281892382830895319652E056
:10304000E335F50729F092818913F8CF1282F6CF84
:103050000895909110019130D1F490917B0297FFE7
:1030600016C0E82FE695E695E695EE3140F5F0E0DE
:10307000EB5AFD4F877021E030E0A90102C0440FF8
:10308000551F8A95E2F7CA019281892B16C0AFE4D9
:10309000B2E0EFEF90E02D91821789F0EF3F19F445
:1030A000211101C0E92F9F5F9630A9F7EF3F39F05A
:1030B0000E2E000CFF0BE35BFD4F828308950895F5
:1030C000A3E0B0E0E5E6F8E1B8C3209179023091E1
:1030D0007A0228173907B1F090937A028093790227
:1030E000E0917702F0917802309761F00084F185E9
:1030F000E02D309739F024E029839B838A83CE0129
:10310000019609952396E2E0B4C3A3E0B0E0EAE8B3
:10311000F8E193C3209175023091760228173907A0
:10312000B1F09093760280937502E0917702F0916E
:103130007802309761F00084F185E02D309739F006
:1031400023E029839B838A83CE01019609952396E8
:10315000E2E08FC3E0917702F0917802309739F086
:103160000190F081E02D309711F00995089580E0ED
:103170000895CF92DF92FF920F931F93CF93DF9327
:103180006C010091C1018091C001082BC7E0D0E023
:1031900010E0C8010C2E02C0959587950A94E2F7BD
:1031A00080FD04C02197A8F7F12C09C0FC2EB601C0
:1031B0008C2F0E94440D0E94610D019799F38F2D71
:1031C000DF91CF911F910F91FF90DF90CF900895E5
:1031D000CF93DF93EC01CDDFBE010E94440D0E942E
:1031E000610DDF91CF910895292F9E3078F58630BB
:1031F00068F590E036E0239F800D911D1124682F23
:10320000677023E0969587952A95E1F7FC01EE0F0C
:10321000FF1FE80FF91FEE57FD4F40E050E080E040
:10322000219130E0062E02C0369527950A94E2F7E8
:1032300021703327042E01C0220F0A94EAF7822B53
:103240004F5F5F4F4330510559F7089580E008956F
:10325000292F9E3088F5863078F590E036E0239F60
:10326000800D911D1124282F277051E001C0550FAA
:103270002A95EAF723E0969587952A95E1F7FC01D0
:10328000EE0FFF1FE80FF91FEE57FD4F20E030E073
:1032900070E04081CB01022E02C0969587950A947A
:1032A000E2F78170819584278523842781932F5F9E
:1032B0003F4F2330310569F708950E946A070E9445
:1032C0004F038093C101089521E030E001C0220F37
:1032D0008A95EAF720958091C1018223EECF21E003
:1032E00030E001C0220F8A95EAF78091C101822B5C
:1032F000E4CFCF93C82F8091C1018C2B0E946A0725
:10330000C093C001CF910895FC0124812223D1F004
:10331000808191815DDF92959F70963079F010F4F5
:10332000925001C09A50923068F4803F69F018F4CE
:10333000883E40F409C0843F29F406C0883E20F04E
:10334000813F11F080E0089581E0089510923102EC
:1033500080911001813041F480917B0287FF04C08D
:103360008EE1E7E5F2E003C086E0EFE4F2E0DF01A2
:103370001D928A95E9F780E090E0C7DE80E090E05A
:103380009FDE109208020C947D0E882321F00E948B
:10339000760E0C947D0E0895882339F090913102B9
:1033A000892B809331020C947D0E0895882311F1AE
:1033B0009CEF980F913A10F41EDE0DC090E2980F2A
:1033C000983058F4877091E001C0990F8A95EAF718
:1033D000892F0E94760E0C947D0E9BE5980F9330FA
:1033E00018F480E090E091CE885A8B3118F480E098
:1033F00090E066CE0895CF93882309F461C0C82F6A
:103400008CEF8C0F813A90F5809110018130E1F4BE
:1034100080917B0287FF18C0EC2FE695E695E69534
:10342000F0E0EB5AFD4F8281282F30E04C2F47709F
:1034300081E090E002C0880F991F4A95E2F782234D
:103440009323892B61F40FC0EFE4F2E085E592E06D
:103450002191C21721F08E179F07D1F704C08C2F3E
:10346000CADD0E947D0E8C2FF4DD10C080E28C0F2F
:10347000883078F4C77081E090E001C0880FCA9569
:10348000EAF790913102892B809331020E947D0EE0
:1034900017C0EBE5EC0FE33038F4F0E0EF5BFE4FE4
:1034A000808190E032DE0CC0C85ACB3148F4EC2F5A
:1034B000F0E0EE0FFF1FEC5BFE4F8081918100DE9C
:1034C000CF910895EF92FF920F931F93CF93DF93C5
:1034D000182FEB011092BC0084EA8093BC004DDDF4
:1034E0007C018091BC0087FD0CC0CF3F8FEFD807D7
:1034F000C1F3C70177DDC817D90798F78EEF9FEFA3
:103500002BC08091B900887F883041F08091B9004C
:10351000887F803119F08FEF9FEF1EC01093BB00A2
:1035200084E88093BC0029DD8C018091BC0087FD7C
:103530000AC0CF3F8FEFD807C1F3C80153DDC817CA
:10354000D90798F7DBCF8091B900887F883111F0D7
:10355000803409F780E090E0CDB7DEB7E6E085C1C2
:103560001092B9008CE08093B80008950F931F93D8
:10357000CF93DF93EB018093BB0084E88093BC0082
:10358000FCDC8C018091BC0087FD0CC0CF3F8FEF2D
:10359000D807C1F3C80126DDC817D90798F78EEF01
:1035A0009FEF0CC02091B900287F81E090E0283285
:1035B00011F480E090E0919581959109DF91CF9190
:1035C0001F910F9108950F931F93CF93DF93EC01F9
:1035D00084EC8093BC00D1DC8C018091BC0087FD21
:1035E0000CC0CF3F8FEFD807C1F3C801FBDCC81771
:1035F000D90798F78EEF9FEF03C08091BB0090E052
:10360000DF91CF911F910F9108950F931F93CF9347
:10361000DF93EC0184E88093BC00AFDC8C018091E7
:10362000BC0087FD0CC0CF3F8FEFD807C1F3C801A6
:10363000D9DCC817D90798F78EEF9FEF03C08091A8
:10364000BB0090E0DF91CF911F910F910895A0E012
:10365000B0E0ECE2FBE1E5C0682E762E5A0169018C
:103660008CDC4C010431110550F00F3F8FEF18072F
:1036700049F0C80164E170E0BCD0EB0105C0C1E0D5
:10368000D0E002C0C5E0D0E0BE01862D1BDF7C018A
:1036900097FF0AC00F3F8FEF1807B1F3C401A2DCF8
:1036A0000817190788F711C0B801872D5FDF7C0163
:1036B000E501CA0CDB1CCC15DD0539F0F7FC05C0B3
:1036C000B801899153DF7C01F6CF84E98093BC0077
:1036D000C701CDB7DEB7EEE0C0C0A0E0B0E0E2E7E2
:1036E000FBE19FC0782E662E7A01E90146DC5C0181
:1036F0000431110550F00F3F8FEF180751F0C8014A
:1037000064E170E076D06B0107C0CC24C394D12C67
:1037100003C025E0C22ED12CB601872DD3DE4C018B
:1037200097FF0AC00F3FEFEF1E07B1F3C5015ADC48
:103730000817190788F727C0B801862D17DF4C0135
:1037400097FD21C0F72DF1607F2E17DC5C0104315D
:10375000110518F10F3F8FEF180719F1C80164E147
:1037600070E047D06B01B601872DACDE4C0197FDB0
:103770001CC067012197C6018E199F098C179D07F0
:1037800048F597FE1CC084E98093BC00C40118165C
:1037900019065CF580E090E028C0CC24C394D12CBD
:1037A000E2CF85E0C82ED12CDECF0F3FEFEF1E0712
:1037B000D1F2C50117DC08171907A8F6DACFC8013E
:1037C00002DF4C0197FD02C0F6018083FFEFCF1AA4
:1037D000DF0AD1CF97FCD7CFC80117DF4C0197FD87
:1037E000D2CFCE0DDF1D8883CECFCDB7DEB7EEE0D2
:1037F00034C0AA1BBB1B51E107C0AA1FBB1FA617E1
:10380000B70710F0A61BB70B881F991F5A95A9F789
:1038100080959095BC01CD0108952F923F924F92D3
:103820005F926F927F928F929F92AF92BF92CF9250
:10383000DF92EF92FF920F931F93CF93DF93CDB759
:10384000DEB7CA1BDB0B0FB6F894DEBF0FBECDBFD1
:1038500009942A88398848885F846E847D848C84A2
:103860009B84AA84B984C884DF80EE80FD800C81AB
:103870001B81AA81B981CE0FD11D0FB6F894DEBF8E
:103880000FBECDBFED010895F999FECF92BD81BD68
:10389000F89A992780B50895A6E1B0E044E050E099
:1038A00025C0A8E1B0E042E050E020C0262FF99901
:1038B000FECF92BD81BDF89A019700B4021639F08F
:1038C0001FBA20BD0FB6F894FA9AF99A0FBE089560
:1038D0000396272FECDFEADF252FE9DF242FE7CF40
:1038E0000196272FE4DFE2CFDC01CB01FC01F9993F
:1038F000FECF06C0F2BDE1BDF89A319600B40D923C
:1039000041505040B8F70895EE0FFF1F0590F49115
:10391000E02D0994FB01DC0104C08D910190801918
:1039200021F441505040C8F7881B990B0895F89432
:02393000FFCFC7
:103932003C163F173A173B16351752172000000066
:103942000100F0F1F4F5F6F700000000000000308D
:10395200313233929366010101010101010000003D
:1039620000000000593537516E2F5A50524570569B
:1039720000818283E200E900EA00B500B600B700E8
:10398200CD008301CC008A0192019401210223021D
:1039920024022502260227022A02B300B4006F0085
:1039A20070009F01CB019F02A00244226D0903E730
:0A39B200027A025F03780398030015
:00000001FF
